:100000000C942A000C943F000C943F000C943F0089
:100010000C943F000C943F000C943F000C943F0064
:100020000C943F000C943F000C943F000C943F0054
:100030000C943F000C943F000C943F000C943F0044
:100040000C943F000C943F000C943F000C943F0034
:100050000C943F0011241FBECFE5D8E0DEBFCDBF1A
:1000600010E0A0E6B0E0E8EAFEE002C005900D92E4
:10007000A637B107D9F70E9425070C9452070C94B4
:100080000000DF93CF930F92CDB7DEB781E0898375
:10009000EAE3F0E08FEF8083E7E3F0E08FEF808327
:1000A000E4E3F0E08AEA8083E1E3F0E08AEA808337
:1000B000EBE3F0E01082E8E3F0E01082E5E3F0E04B
:1000C00086E68083E2E3F0E086E680831982898118
:1000D0000F90CF91DF910895DF93CF9300D000D0A0
:1000E0000F92CDB7DEB78A836B8381E089838A81E3
:1000F0008430A0F58A81282F30E03D832C838C81C9
:100100009D8181309105D1F02C813D8122303105D6
:100110002CF48C819D81009761F01EC02C813D8163
:100120002230310581F08C819D818330910581F0F1
:1001300013C0EAE3F0E08B8180830EC0E7E3F0E0D8
:100140008B81808309C0E4E3F0E08B81808304C06D
:10015000E1E3F0E08B818083198202C083E0898330
:1001600089810F900F900F900F900F90CF91DF919A
:100170000895DF93CF9300D000D00F92CDB7DEB7B4
:100180008A836B8381E089838A818430A0F58A81A8
:10019000282F30E03D832C838C819D818130910517
:1001A000D1F02C813D81223031052CF48C819D8150
:1001B000009761F01EC02C813D812230310581F015
:1001C0008C819D818330910581F013C0EBE3F0E0D9
:1001D0008B8180830EC0E8E3F0E08B81808309C0CF
:1001E000E5E3F0E08B81808304C0E2E3F0E08B8103
:1001F0008083198202C083E0898389810F900F90E8
:100200000F900F900F90CF91DF910895DF93CF93D0
:1002100000D000D0CDB7DEB78A8381E089838A81A0
:10022000843008F040C08A81282F30E03C832B8343
:100230008B819C8181309105E9F02B813C812230BA
:1002400031052CF48B819C81009761F02AC02B81B1
:100250003C8122303105B1F08B819C818330910546
:10026000C9F01FC0ABE3B0E0EBE3F0E08081809524
:100270008C9317C0A8E3B0E0E8E3F0E080818095BC
:100280008C930FC0A5E3B0E0E5E3F0E080818095BA
:100290008C9307C0A2E3B0E0E2E3F0E080818095B8
:1002A0008C93198202C083E0898389810F900F901B
:1002B0000F900F90CF91DF910895DF93CF9300D0EF
:1002C00000D000D0CDB7DEB78A837C836B8381E01A
:1002D00089838B819C81009709F442C08A81843094
:1002E000E0F58A81282F30E03E832D838D819E8129
:1002F00081309105E1F02D813E81223031052CF4D1
:100300008D819E81009761F026C02D813E81223033
:100310003105A1F08D819E8183309105B1F01BC024
:10032000E9E3F0E08081EB81FC81808314C0E6E3A7
:10033000F0E08081EB81FC8180830DC0E3E3F0E09D
:100340008081EB81FC81808306C0E0E3F0E0808166
:10035000EB81FC818083198205C083E0898302C020
:1003600082E08983898126960FB6F894DEBF0FBE9E
:10037000CDBFCF91DF910895DF93CF9300D000D010
:1003800000D0CDB7DEB78A836B834C8381E089834D
:100390008A81843008F0D0C08B81883008F0CCC0CE
:1003A0008C81823008F0C8C08A81282F30E03E83DB
:1003B0002D836D817E816130710509F441C08D818D
:1003C0009E818230910534F42D813E8121153105C5
:1003D00071F0B0C06D817E816230710509F459C041
:1003E0008D819E818330910509F47CC0A3C0AAE36E
:1003F000B0E0EAE3F0E08081482F8B81282F30E0E5
:1004000081E090E002C0880F991F2A95E2F780955D
:1004100084238C93AAE3B0E0EAE3F0E08081482FE4
:100420008C81282F30E08B81882F90E0B90102C0A9
:10043000660F771F8A95E2F7CB01842B8C937AC0E5
:10044000A7E3B0E0E7E3F0E08081482F8B81282F1D
:1004500030E081E090E002C0880F991F2A95E2F712
:10046000809584238C93A7E3B0E0E7E3F0E08081FC
:10047000482F8C81282F30E08B81882F90E0B901A4
:1004800002C0660F771F8A95E2F7CB01842B8C930D
:1004900051C0A4E3B0E0E4E3F0E08081482F8B8119
:1004A000282F30E081E090E002C0880F991F2A9544
:1004B000E2F7809584238C93A4E3B0E0E4E3F0E0DA
:1004C0008081482F8C81282F30E08B81882F90E00D
:1004D000B90102C0660F771F8A95E2F7CB01842B22
:1004E0008C9328C0A1E3B0E0E1E3F0E08081482FE5
:1004F0008B81282F30E081E090E002C0880F991FA7
:100500002A95E2F7809584238C93A1E3B0E0E1E3A0
:10051000F0E08081482F8C81282F30E08B81882F5C
:1005200090E0B90102C0660F771F8A95E2F7CB0110
:10053000842B8C93198202C083E08983898126965B
:100540000FB6F894DEBF0FBECDBFCF91DF910895F7
:10055000DF93CF9300D000D000D0CDB7DEB78A8331
:100560006B834C8381E089838A81843008F0D0C01A
:100570008B81883008F0CCC08C81823008F0C8C0F4
:100580008A81282F30E03E832D836D817E8161300A
:10059000710509F441C08D819E818230910534F44A
:1005A0002D813E812115310571F0B0C06D817E81B4
:1005B0006230710509F459C08D819E8183309105A7
:1005C00009F47CC0A3C0ABE3B0E0EBE3F0E08081D2
:1005D000482F8B81282F30E081E090E002C0880F07
:1005E000991F2A95E2F7809584238C93ABE3B0E0C2
:1005F000EBE3F0E08081482F8C81282F30E08B8165
:10060000882F90E0B90102C0660F771F8A95E2F744
:10061000CB01842B8C937AC0A8E3B0E0E8E3F0E050
:100620008081482F8B81282F30E081E090E002C04C
:10063000880F991F2A95E2F7809584238C93A8E36D
:10064000B0E0E8E3F0E08081482F8C81282F30E093
:100650008B81882F90E0B90102C0660F771F8A95C1
:10066000E2F7CB01842B8C9351C0A5E3B0E0E5E326
:10067000F0E08081482F8B81282F30E081E090E0EE
:1006800002C0880F991F2A95E2F7809584238C93E6
:10069000A5E3B0E0E5E3F0E08081482F8C81282FCE
:1006A00030E08B81882F90E0B90102C0660F771F80
:1006B0008A95E2F7CB01842B8C9328C0A2E3B0E0AB
:1006C000E2E3F0E08081482F8B81282F30E081E049
:1006D00090E002C0880F991F2A95E2F78095842345
:1006E0008C93A2E3B0E0E2E3F0E08081482F8C81BC
:1006F000282F30E08B81882F90E0B90102C0660F6F
:10070000771F8A95E2F7CB01842B8C93198202C064
:1007100083E08983898126960FB6F894DEBF0FBEE9
:10072000CDBFCF91DF910895DF93CF9300D000D05C
:100730000F92CDB7DEB78A836B8381E089838A818C
:10074000843008F074C08B81883008F070C08A81D2
:10075000282F30E03D832C838C819D818130910551
:1007600049F12C813D81223031052CF48C819D8111
:10077000009761F05AC02C813D812230310571F122
:100780008C819D8183309105E9F14FC0ABE3B0E0EE
:10079000EBE3F0E08081482F8B81282F30E081E06F
:1007A00090E0022E02C0880F991F0A94E2F7842776
:1007B0008C933BC0A8E3B0E0E8E3F0E08081482FF1
:1007C0008B81282F30E081E090E0022E02C0880F5C
:1007D000991F0A94E2F784278C9327C0A5E3B0E021
:1007E000E5E3F0E08081482F8B81282F30E081E025
:1007F00090E0022E02C0880F991F0A94E2F7842726
:100800008C9313C0A2E3B0E0E2E3F0E08081482FD4
:100810008B81282F30E081E090E0022E02C0880F0B
:10082000991F0A94E2F784278C93198202C083E00F
:10083000898389810F900F900F900F900F90CF9127
:10084000DF910895DF93CF93CDB7DEB727970FB62B
:10085000F894DEBF0FBECDBF8A836B835D834C836C
:1008600081E089838C819D81009709F47DC08A8114
:10087000843008F076C08B81883008F072C08A819D
:10088000282F30E03F832E834E815F814130510518
:1008900059F18E819F818230910534F42E813F8100
:1008A0002115310569F05BC04E815F8142305105F1
:1008B00079F18E819F818330910509F43DC04FC04D
:1008C000E9E3F0E08081282F30E08B81882F90E0F1
:1008D000A90102C0559547958A95E2F7CA01817032
:1008E000EC81FD8180833BC0E6E3F0E08081282F2E
:1008F00030E08B81882F90E0A90102C05595479583
:100900008A95E2F7CA018170EC81FD81808327C05E
:10091000E3E3F0E08081282F30E08B81882F90E0A6
:10092000A90102C0559547958A95E2F7CA018170E1
:10093000EC81FD81808313C0E0E3F0E08081282F0B
:1009400030E08B81882F90E0A90102C05595479532
:100950008A95E2F7CA018170EC81FD81808319825A
:1009600005C083E0898302C082E08983898127965C
:100970000FB6F894DEBF0FBECDBFCF91DF910895C3
:10098000DF93CF9300D000D0CDB7DEB79C838B83AD
:1009900081E08A838B819C81009709F45DC0198274
:1009A000198255C08981282F30E0C901880F991F0D
:1009B000280F391F8B819C81FC01E20FF31F4081BE
:1009C0008981282F30E0C901880F991F280F391F0E
:1009D0008B819C81FC01E20FF31F9181842F692F91
:1009E00040E00E94BC018A838981282F30E0C90140
:1009F000880F991F280F391F8B819C81FC01E20F02
:100A0000F31F50818981282F30E0C901880F991F79
:100A1000280F391F8B819C81FC01E20FF31F41815C
:100A20008981282F30E0C901880F991F280F391FAD
:100A30008B819C81FC01E20FF31F9281852F642F33
:100A4000492F0E94A8028A8389818F5F89838981C7
:100A5000833008F4A7CF02C082E08A838A810F9096
:100A60000F900F900F90CF91DF910895DF93CF9368
:100A700000D000D00F92CDB7DEB79B838A837D83F1
:100A80006C8381E089838A819B81009791F08C81BE
:100A90009D81009771F0EA81FB818081EA81FB8171
:100AA00091812C813D81692FA9010E9422048983B3
:100AB00002C082E0898389810F900F900F900F9080
:100AC0000F90CF91DF910895DF93CF9300D000D0A6
:100AD0000F92CDB7DEB79C838B8381E08A838B81B5
:100AE0009C81009709F424C1198219821CC1898153
:100AF000882F90E09C01220F331F220F331F8B8120
:100B00009C81FC01E20FF31F40818981882F90E0D6
:100B10009C01220F331F220F331F8B819C81FC010C
:100B2000E20FF31F9181842F692F41E00E94BC01E5
:100B30008A838981882F90E09C01220F331F220F26
:100B4000331F8B819C81FC01E20FF31F828188306F
:100B500009F069C08981882F90E09C01220F331F22
:100B6000220F331F8B819C81FC01E20FF31F8381D5
:100B70008A3019F58981882F90E09C01220F331F5C
:100B8000220F331F8B819C81FC01E20FF31F4081F8
:100B90008981882F90E09C01220F331F220F331F81
:100BA0008B819C81FC01E20FF31F9181842F692FBF
:100BB00040E00E94A8028A83B3C08981882F90E018
:100BC0009C01220F331F220F331F8B819C81FC015C
:100BD000E20FF31F83818B3019F58981882F90E014
:100BE0009C01220F331F220F331F8B819C81FC013C
:100BF000E20FF31F40818981882F90E09C01220F32
:100C0000331F220F331F8B819C81FC01E20FF31FE6
:100C10009181842F692F41E00E94A8028A8380C0BD
:100C200083E08D8389C08981882F90E09C01220F09
:100C3000331F220F331F8B819C81FC01E20FF31FB6
:100C40008281893009F069C08981882F90E09C01F8
:100C5000220F331F220F331F8B819C81FC01E20F77
:100C6000F31F83818A3019F58981882F90E09C01D8
:100C7000220F331F220F331F8B819C81FC01E20F57
:100C8000F31F40818981882F90E09C01220F331F40
:100C9000220F331F8B819C81FC01E20FF31F918196
:100CA000842F692F41E00E94A8028A8339C089817C
:100CB000882F90E09C01220F331F220F331F8B815E
:100CC0009C81FC01E20FF31F83818B3019F5898130
:100CD000882F90E09C01220F331F220F331F8B813E
:100CE0009C81FC01E20FF31F40818981882F90E0F5
:100CF0009C01220F331F220F331F8B819C81FC012B
:100D0000E20FF31F9181842F692F40E00E94A80217
:100D10008A8306C083E08D830FC083E08D830CC07F
:100D200089818F5F89838981833008F4E0CE02C096
:100D300082E08A838A818D838D810F900F900F903E
:100D40000F900F90CF91DF910895DF93CF9300D054
:100D500000D0CDB7DEB79B838A8381E089838A8107
:100D60009B81009741F1EA81FB818281883061F4A7
:100D7000EA81FB818081EA81FB819181692F40E0DA
:100D80000E94A802898314C0EA81FB818281893094
:100D900061F4EA81FB818081EA81FB819181692F85
:100DA00041E00E94A802898303C083E08C8305C0D0
:100DB00089818C8302C082E08C838C810F900F909C
:100DC0000F900F90CF91DF910895DF93CF9300D0D4
:100DD00000D0CDB7DEB79B838A8381E089838A8187
:100DE0009B81009741F1EA81FB818281883061F427
:100DF000EA81FB818081EA81FB819181692F41E059
:100E00000E94A802898314C0EA81FB818281893013
:100E100061F4EA81FB818081EA81FB819181692F04
:100E200040E00E94A802898303C083E08C8305C050
:100E300089818C8302C082E08C838C810F900F901B
:100E40000F900F90CF91DF910895DF93CF930F9282
:100E5000CDB7DEB70E94410089E690E00E946405AC
:100E600080E690E00E94C004198283E690E09E0133
:100E70002F5F3F4FB9010E9436058981882349F4CD
:100E800089E690E00E94A5068DE690E00E94E506C6
:100E9000ECCF89E690E00E94E5068DE690E00E94A6
:080EA000A506E3CFF894FFCF93
:100EA8000004000104010204010000080B0100090C
:060EB8000A0200090B0014
:00000001FF
