:100000000C942A000C943F000C943F000C943F0089
:100010000C943F000C943F000C943F000C943F0064
:100020000C943F000C943F000C943F000C943F0054
:100030000C943F000C943F000C943F000C943F0044
:100040000C943F000C943F000C943F000C943F0034
:100050000C943F0011241FBECFE5D8E0DEBFCDBF1A
:1000600012E0A0E6B0E0E4ECF4E602C005900D92E8
:10007000A030B107D9F70E943B2A0C9460320C944F
:100080000000EF92FF920F931F937B018C0120E001
:1000900030E040E05FE40E94ED0388238CF0C8016B
:1000A000B70120E030E040E05FE40E94B9010E9427
:1000B000AB049B01AC01205030404040504806C08A
:1000C000C801B7010E94AB049B01AC01B901CA0190
:1000D0001F910F91FF90EF900895A0E0B0E0E3E74B
:1000E000F0E00C942932DC012B01FA019C91923052
:1000F00008F439C1EB018881823008F433C19430AF
:1001000069F4843009F02FC111969C91119789816F
:10011000981709F428C1A7E6B0E025C1843009F496
:1001200021C18230A9F4923009F01DC19A01AD01BC
:1001300088E0EA010990AE01E90109929E0181502F
:10014000C1F7E201898111969C918923818308C1BD
:10015000923009F407C112962D903C901397EB0151
:100160008A819B811496AD90BD90CD90DC901797BD
:10017000EC80FD800E811F819101281B390BB90194
:1001800037FF04C066277727621B730B6032710547
:100190000CF061C0121613066CF537014801062EEB
:1001A00004C096948794779467940A94D2F721E0D8
:1001B00030E040E050E004C0220F331F441F551FC1
:1001C0006A95D2F721503040404050402E213F21C7
:1001D00040235123211531054105510521F021E02E
:1001E00030E040E050E079018A01E628F72808294C
:1001F00019293CC0232BD1F1260E371E35014601AB
:10020000062E04C096948794779467940A94D2F744
:1002100021E030E040E050E004C0220F331F441FD3
:10022000551F6A95D2F721503040404050402A2156
:100230003B214C215D21211531054105510521F05E
:1002400021E030E040E050E059016A01A628B728DB
:10025000C828D9280BC0821593052CF01C01AA24AC
:10026000BB24650103C0EE24FF24870111969C91F5
:10027000D20111968C91981709F445C0992339F051
:10028000A80197012A193B094C095D0906C0A6017E
:1002900095012E193F09400B510B57FD08C01182E3
:1002A0003382228224833583468357831DC081E0B5
:1002B00081833382228288279927DC01821B930B5A
:1002C000A40BB50B84839583A683B7830DC0220F3F
:1002D000331F441F551F24833583468357838281F0
:1002E000938101979383828324813581468157814D
:1002F000DA01C9010197A109B1098F5F9F4FAF4F83
:10030000BF4328F30BC0918333822282EA0CFB1C8B
:100310000C1D1D1DE482F5820683178383E0808314
:10032000248135814681578157FF1AC0C901AA2708
:1003300097FDA095BA2F81709070A070B0705695FF
:10034000479537952795822B932BA42BB52B848328
:100350009583A683B7838281938101969383828359
:10036000DF0101C0D201CD01CDB7DEB7E2E10C94CF
:100370004532A0E2B0E0EFEBF1E00C943532698356
:100380007A838B839C832D833E834F835887E9E058
:10039000EE2EF12CEC0EFD1ECE010196B7010E944F
:1003A0009C068E010F5E1F4FCE010596B8010E947C
:1003B0009C068A8991E089278A8BC701B801AE0122
:1003C000475E5F4F0E946D000E94C705A096E6E061
:1003D0000C945132A0E2B0E0E0EFF1E00C94353241
:1003E00069837A838B839C832D833E834F835887D5
:1003F000F9E0EF2EF12CEC0EFD1ECE010196B701B7
:100400000E949C068E010F5E1F4FCE010596B8011B
:100410000E949C06C701B801AE01475E5F4F0E9473
:100420006D000E94C705A096E6E00C945132A0E250
:10043000B0E0EDE1F2E00C94293269837A838B839A
:100440009C832D833E834F835887CE010196BE0146
:10045000675F7F4F0E949C06CE010596BE016F5ECE
:100460007F4F0E949C069985923088F0898982305E
:10047000C8F0943019F4823051F404C0843029F467
:10048000923081F487E690E0C6C0923049F420E0D3
:100490009A858A89981321E02A87CE010996BBC0E4
:1004A000823049F420E09A858A89981321E02A8BCA
:1004B000CE014196B0C02D843E844F8458886D880B
:1004C0007E888F88988CEE24FF248701AA24BB2481
:1004D000650140E050E060E070E0E0E0F0E0C10184
:1004E00081709070892BE9F0E60CF71C081D191D2E
:1004F0009A01AB012A0D3B1D4C1D5D1D80E090E073
:10050000A0E0B0E0E614F7040805190520F481E046
:1005100090E0A0E0B0E0BA01A901480F591F6A1F9E
:100520007B1FAA0CBB1CCC1CDD1C97FE08C081E005
:1005300090E0A0E0B0E0A82AB92ACA2ADB2A3196C6
:10054000E032F10549F0660C771C881C991C569422
:10055000479437942794C3CFFA85EA892B893C893D
:100560008B859C85280F391F2E5F3F4F17C0CA010E
:1005700081709070892B61F016950795F794E79438
:1005800080E090E0A0E0B0E8E82AF92A0A2B1B2BD3
:1005900076956795579547952F5F3F4F77FDE7CF46
:1005A0000CC0440F551F661F771F17FD4160EE0CEE
:1005B000FF1C001F111F21503040403090E05907B0
:1005C00090E0690790E4790760F32B8F3C8FDB01A3
:1005D000CA018F779070A070B07080349105A1052A
:1005E000B10561F447FD0AC0E114F10401051105EC
:1005F00029F0405C5F4F6F4F7F4F40781A8EFE1797
:1006000011F081E08A8F4D8F5E8F6F8F78A383E02A
:10061000898FCE0149960E94C705A096E2E10C940D
:100620004532A8E1B0E0E7E1F3E00C9431326983B0
:100630007A838B839C832D833E834F835887B9E0D5
:10064000EB2EF12CEC0EFD1ECE010196B7010E949F
:100650009C068E010F5E1F4FCE010596B8010E94C9
:100660009C062985223008F47EC03989323010F486
:10067000B8017CC08A859A8989278A87243011F03D
:10068000223031F4231709F06EC067E670E06EC0C7
:10069000343039F41D861E861F86188A1C861B86F8
:1006A00004C0323021F484E08987B7015FC02B8514
:1006B0003C858B899C89281B390B3C872B87ED84D3
:1006C000FE840F851889AD88BE88CF88D88CEA143F
:1006D000FB040C051D0540F4EE0CFF1C001F111F50
:1006E000215030403C872B8720E030E040E050E054
:1006F00080E090E0A0E0B0E460E070E0EA14FB0489
:100700000C051D0540F0282B392B4A2B5B2BEA18D2
:10071000FB080C091D09B695A79597958795EE0CD2
:10072000FF1C001F111F6F5F7F4F6F31710531F785
:10073000DA01C9018F779070A070B0708034910594
:10074000A105B10561F427FD0AC0E114F10401051A
:10075000110529F0205C3F4F4F4F5F4F20782D87C8
:100760003E874F87588BBE01675F7F4FCB010E944A
:10077000C7056896EAE00C944D32A8E1B0E0E3ECDE
:10078000F3E00C94353269837A838B839C832D83C9
:100790003E834F83588789E0E82EF12CEC0EFD1E36
:1007A000CE010196B7010E949C068E010F5E1F4F7D
:1007B000CE010596B8010E949C068985823040F0E2
:1007C0008989823028F0C701B8010E94140701C04E
:1007D0008FEF6896E6E00C945132A8E1B0E0E3EFC9
:1007E000F3E00C94353269837A838B839C832D8369
:1007F0003E834F83588789E0E82EF12CEC0EFD1ED6
:10080000CE010196B7010E949C068E010F5E1F4F1C
:10081000CE010596B8010E949C068985823040F081
:100820008989823028F0C701B8010E94140701C0ED
:100830008FEF6896E6E00C945132A8E1B0E0E3E275
:10084000F4E00C94353269837A838B839C832D8307
:100850003E834F83588789E0E82EF12CEC0EFD1E75
:10086000CE010196B7010E949C068E010F5E1F4FBC
:10087000CE010596B8010E949C068985823040F021
:100880008989823028F0C701B8010E94140701C08D
:1008900081E06896E6E00C945132A8E0B0E0E3E530
:1008A000F4E00C9432329B01AC0183E08983DA01DD
:1008B000C9018827B7FD83959927AA27BB27B82E9A
:1008C000211531054105510519F482E089833AC0AB
:1008D0008823A9F0203080E0380780E0480780E8CE
:1008E000580729F460E070E080E09FEC30C0EE240F
:1008F000FF248701E21AF30A040B150B02C07901E9
:100900008A018EE1C82ED12CDC82CB82ED82FE8260
:100910000F831887C801B7010E9478050197181640
:10092000190684F4082E04C0EE0CFF1C001F111FD2
:100930000A94D2F7ED82FE820F831887C81AD90A6B
:10094000DC82CB82BA82CE0101960E94C70528962E
:10095000E9E00C944E32ACE0B0E0E1EBF4E00C9452
:10096000393269837A838B839C83CE010196BE01E1
:100970006B5F7F4F0E949C068D81823061F18230D7
:1009800050F1843021F48E81882351F12EC02F81C3
:10099000388537FD20C06E812F3131051CF066236C
:1009A000F9F023C08EE190E0821B930B29853A85F4
:1009B0004B855C8504C056954795379527958A9554
:1009C000D2F76623B1F050954095309521953F4F71
:1009D0004F4F5F4F0EC020E030E040E050E009C0D4
:1009E0002FEF3FEF4FEF5FE704C020E030E040E043
:1009F00050E8B901CA012C96E2E00C945532A8E007
:100A0000B0E0E5E0F5E00C9431327B018C0161153A
:100A100071058105910519F482E0898360C083E046
:100A200089838EE1C82ED12CDC82CB82ED82FE82BE
:100A30000F831887C801B7010E947805FC01319720
:100A4000F7FF3BC0222733272E1B3F0B57016801BE
:100A5000022E04C0D694C794B794A7940A94D2F7F0
:100A600040E050E060E070E081E090E0A0E0B0E0C5
:100A700004C0880F991FAA1FBB1F2A95D2F70197A0
:100A8000A109B1098E219F21A023B1230097A105BF
:100A9000B10521F041E050E060E070E04A295B29B7
:100AA0006C297D294D835E836F8378878EE190E08A
:100AB0008E1B9F0B9C838B8312C0309781F00E2E70
:100AC00004C0EE0CFF1C001F111F0A94D2F7ED8228
:100AD000FE820F831887CE1ADF0ADC82CB821A824D
:100AE000CE0101960E94C7052896EAE00C944D328B
:100AF000EF92FF920F931F937B018C0180E0E81629
:100B000080E0F80681E0080780E0180788F48FEF9E
:100B1000E816F1040105110531F028F088E090E0B5
:100B2000A0E0B0E017C080E090E0A0E0B0E012C02C
:100B300080E0E81680E0F80680E0080781E018070A
:100B400028F088E190E0A0E0B0E004C080E190E00F
:100B5000A0E0B0E020E230E040E050E0281B390B9C
:100B60004A0B5B0B04C016950795F794E7948A959A
:100B7000D2F7F701E159FF4F8081281B3109410964
:100B80005109C9011F910F91FF90EF900895DF92D5
:100B9000EF92FF920F931F93FC01E480F580068192
:100BA0001781D1808081823048F480E090E0A0E11C
:100BB000B0E0E82AF92A0A2B1B2BA5C0843009F4DF
:100BC0009FC0823021F4EE24FF24870105C0E11488
:100BD000F1040105110519F4E0E0F0E096C062812E
:100BE00073819FEF623879070CF05BC022E83FEF1A
:100BF000261B370B2A3131052CF020E030E040E095
:100C000050E02AC0B801A701022E04C0769567956E
:100C1000579547950A94D2F781E090E0A0E0B0E0C4
:100C200004C0880F991FAA1FBB1F2A95D2F70197EE
:100C3000A109B1098E219F21A023B1230097A1050D
:100C4000B10521F081E090E0A0E0B0E09A01AB01B5
:100C5000282B392B4A2B5B2BDA01C9018F77907037
:100C6000A070B07080349105A105B10539F427FF5B
:100C700009C0205C3F4F4F4F5F4F04C0215C3F4F86
:100C80004F4F5F4FE0E0F0E02030A0E03A07A0E0F7
:100C90004A07A0E45A0710F0E1E0F0E079018A0188
:100CA00027C06038710564F5FB01E158FF4FD8019A
:100CB000C7018F779070A070B07080349105A10546
:100CC000B10539F4E7FE0DC080E490E0A0E0B0E0AB
:100CD00004C08FE390E0A0E0B0E0E80EF91E0A1F28
:100CE0001B1F17FF05C016950795F794E7943196DB
:100CF00087E016950795F794E7948A95D1F705C094
:100D0000EE24FF248701EFEFF0E06E2F6795662752
:100D10006795902F9F77D794DD24D7948E2F869553
:100D2000492F462B582F5D29B701CA011F910F91FA
:100D3000FF90EF90DF900895FC01DB01408151812D
:100D40002281622F6F7770E0221F2227221F93815A
:100D5000892F880F822B282F30E0991F9927991F00
:100D600011969C93119721153105A9F5411551054F
:100D70006105710511F482E037C082E89FEF139698
:100D80009C938E9312979A01AB0167E0220F331F59
:100D9000441F551F6A95D1F783E08C930DC0220F35
:100DA000331F441F551F12968D919C9113970197E5
:100DB00013969C938E931297203080E0380780E042
:100DC000480780E4580758F314962D933D934D93AC
:100DD0005C93179708952F3F310579F4411551051C
:100DE0006105710519F484E08C93089564FF03C0D4
:100DF00081E08C9312C01C9210C02F573040139684
:100E00003C932E93129783E08C9387E0440F551FF9
:100E1000661F771F8A95D1F7706414964D935D9382
:100E20006D937C93179708951F93DC01FB019C91B0
:100E3000923008F447C08081823008F443C0943077
:100E400051F411961C91843099F58181682F70E0DE
:100E5000611B71093FC0843021F0923031F482303F
:100E6000B9F18181882389F12DC011961C911197C8
:100E70008230F1F081811817D9F412962D913C91AE
:100E80001397828193818217930794F0281739076B
:100E9000BCF014968D919D910D90BC91A02D248154
:100EA000358146815781281739074A075B0718F4AF
:100EB000112341F00AC082179307A407B50740F435
:100EC000112319F061E070E005C06FEF7FEF02C001
:100ED00060E070E0CB011F910895DF93CF930F92F4
:100EE000CDB7DEB71982EAE3F0E08FEF8083E7E366
:100EF000F0E08FEF8083E4E3F0E08AEA8083E1E3CF
:100F0000F0E08AEA8083EBE3F0E01082E8E3F0E0CF
:100F10001082E5E3F0E086E68083E2E3F0E086E637
:100F2000808381E0898389810F90CF91DF9108953B
:100F3000DF93CF9300D000D00F92CDB7DEB78A8376
:100F40006B8319828A818430A8F58A81282F30E04A
:100F50003D832C838C819D8181309105D1F02C8142
:100F60003D81223031052CF48C819D81009761F008
:100F70001EC02C813D812230310581F08C819D8104
:100F80008330910581F013C0EAE3F0E08B81808328
:100F90000EC0E7E3F0E08B81808309C0E4E3F0E07A
:100FA0008B81808304C0E1E3F0E08B81808381E06A
:100FB000898302C083E0898389810F900F900F900D
:100FC0000F900F90CF91DF910895DF93CF9300D0D2
:100FD00000D00F92CDB7DEB78A836B8319828A81E6
:100FE0008430A8F58A81282F30E03D832C838C81C2
:100FF0009D8181309105D1F02C813D8122303105D8
:101000002CF48C819D81009761F01EC02C813D8164
:101010002230310581F08C819D818330910581F0F2
:1010200013C0EBE3F0E08B8180830EC0E8E3F0E0D7
:101030008B81808309C0E5E3F0E08B81808304C06D
:10104000E2E3F0E08B81808381E0898302C083E06A
:10105000898389810F900F900F900F900F90CF91FF
:10106000DF910895DF93CF9300D000D0CDB7DEB7E6
:101070008A8319828A81843008F041C08A81282FAE
:1010800030E03C832B838B819C8181309105E9F09A
:101090002B813C81223031052CF48B819C8100977F
:1010A00061F02AC02B813C8122303105B1F08B8167
:1010B0009C8183309105C9F01FC0ABE3B0E0EBE346
:1010C000F0E0808180958C9317C0A8E3B0E0E8E35E
:1010D000F0E0808180958C930FC0A5E3B0E0E5E35C
:1010E000F0E0808180958C9307C0A2E3B0E0E2E35A
:1010F000F0E0808180958C9381E0898302C083E059
:10110000898389810F900F900F900F90CF91DF917D
:101110000895DF93CF9300D000D000D0CDB7DEB7D5
:101120008A837C836B8319828B819C81009709F46D
:1011300043C08A818430E8F58A81282F30E03E83DD
:101140002D838D819E8181309105E1F02D813E813D
:10115000223031052CF48D819E81009761F026C0EC
:101160002D813E8122303105A1F08D819E81833019
:101170009105B1F01BC0E9E3F0E08081EB81FC81D7
:10118000808314C0E6E3F0E08081EB81FC81808302
:101190000DC0E3E3F0E08081EB81FC81808306C039
:1011A000E0E3F0E08081EB81FC81808381E0898352
:1011B00005C083E0898302C082E089838981269605
:1011C0000FB6F894DEBF0FBECDBFCF91DF9108956B
:1011D000DF93CF9300D000D000D0CDB7DEB78A83A5
:1011E0006B834C8319828A81843008F0D1C08B8153
:1011F000883008F0CDC08C81823008F0C9C08A8167
:10120000282F30E03E832D836D817E816130710512
:1012100009F441C08D819E818230910534F42D8185
:101220003E812115310571F0B0C06D817E81623043
:10123000710509F459C08D819E818330910509F4AF
:101240007CC0A3C0AAE3B0E0EAE3F0E08081482FCD
:101250008B81282F30E081E090E002C0880F991F39
:101260002A95E2F7809584238C93AAE3B0E0EAE321
:10127000F0E08081482F8C81282F30E08B81882FEF
:1012800090E0B90102C0660F771F8A95E2F7CB01A3
:10129000842B8C937AC0A7E3B0E0E7E3F0E0808191
:1012A000482F8B81282F30E081E090E002C0880F2A
:1012B000991F2A95E2F7809584238C93A7E3B0E0E9
:1012C000E7E3F0E08081482F8C81282F30E08B818C
:1012D000882F90E0B90102C0660F771F8A95E2F768
:1012E000CB01842B8C9351C0A4E3B0E0E4E3F0E0A5
:1012F0008081482F8B81282F30E081E090E002C070
:10130000880F991F2A95E2F7809584238C93A4E394
:10131000B0E0E4E3F0E08081482F8C81282F30E0BA
:101320008B81882F90E0B90102C0660F771F8A95E4
:10133000E2F7CB01842B8C9328C0A1E3B0E0E1E37A
:10134000F0E08081482F8B81282F30E081E090E011
:1013500002C0880F991F2A95E2F7809584238C9309
:10136000A1E3B0E0E1E3F0E08081482F8C81282FF9
:1013700030E08B81882F90E0B90102C0660F771FA3
:101380008A95E2F7CB01842B8C9381E0898302C09C
:1013900083E08983898126960FB6F894DEBF0FBE5D
:1013A000CDBFCF91DF910895DF93CF9300D000D0D0
:1013B00000D0CDB7DEB78A836B834C8319828A81D4
:1013C000843008F0D1C08B81883008F0CDC08C818A
:1013D000823008F0C9C08A81282F30E03E832D83F7
:1013E0006D817E816130710509F441C08D819E81DE
:1013F0008230910534F42D813E812115310571F043
:10140000B0C06D817E816230710509F459C08D8153
:101410009E818330910509F47CC0A3C0ABE3B0E0AA
:10142000EBE3F0E08081482F8B81282F30E081E0D2
:1014300090E002C0880F991F2A95E2F780958423D7
:101440008C93ABE3B0E0EBE3F0E08081482F8C813C
:10145000282F30E08B81882F90E0B90102C0660F01
:10146000771F8A95E2F7CB01842B8C937AC0A8E38F
:10147000B0E0E8E3F0E08081482F8B81282F30E056
:1014800081E090E002C0880F991F2A95E2F78095CD
:1014900084238C93A8E3B0E0E8E3F0E08081482F58
:1014A0008C81282F30E08B81882F90E0B90102C019
:1014B000660F771F8A95E2F7CB01842B8C9351C07E
:1014C000A5E3B0E0E5E3F0E08081482F8B81282F91
:1014D00030E081E090E002C0880F991F2A95E2F782
:1014E000809584238C93A5E3B0E0E5E3F0E0808170
:1014F000482F8C81282F30E08B81882F90E0B90114
:1015000002C0660F771F8A95E2F7CB01842B8C937C
:1015100028C0A2E3B0E0E2E3F0E08081482F8B81B5
:10152000282F30E081E090E002C0880F991F2A95B3
:10153000E2F7809584238C93A2E3B0E0E2E3F0E04D
:101540008081482F8C81282F30E08B81882F90E07C
:10155000B90102C0660F771F8A95E2F7CB01842B91
:101560008C9381E0898302C083E0898389812696F8
:101570000FB6F894DEBF0FBECDBFCF91DF910895B7
:10158000DF93CF9300D000D00F92CDB7DEB78A8320
:101590006B8319828A81843008F075C08B81883012
:1015A00008F071C08A81282F30E03D832C838C8124
:1015B0009D818130910549F12C813D812230310599
:1015C0002CF48C819D81009761F05AC02C813D8163
:1015D0002230310571F18C819D8183309105E9F1D3
:1015E0004FC0ABE3B0E0EBE3F0E08081482F8B81AC
:1015F000282F30E081E090E0022E02C0880F991F72
:101600000A94E2F784278C933BC0A8E3B0E0E8E3B8
:10161000F0E08081482F8B81282F30E081E090E03E
:10162000022E02C0880F991F0A94E2F784278C9338
:1016300027C0A5E3B0E0E5E3F0E08081482F8B818F
:10164000282F30E081E090E0022E02C0880F991F21
:101650000A94E2F784278C9313C0A2E3B0E0E2E39C
:10166000F0E08081482F8B81282F30E081E090E0EE
:10167000022E02C0880F991F0A94E2F784278C93E8
:1016800081E0898302C083E0898389810F900F9074
:101690000F900F900F90CF91DF910895DF93CF932C
:1016A000CDB7DEB727970FB6F894DEBF0FBECDBF1C
:1016B0008A836B835D834C8319828C819D81009723
:1016C00009F47EC08A81843008F077C08B8188302D
:1016D00008F073C08A81282F30E03F832E834E812B
:1016E0005F814130510559F18E819F818230910592
:1016F00034F42E813F812115310569F05BC04E81A4
:101700005F814230510579F18E819F81833091054F
:1017100009F43DC04FC0E9E3F0E08081282F30E0BC
:101720008B81882F90E0A90102C0559547958A9535
:10173000E2F7CA018170EC81FD8180833BC0E6E362
:10174000F0E08081282F30E08B81882F90E0A90184
:1017500002C0559547958A95E2F7CA018170EC81E0
:10176000FD81808327C0E3E3F0E08081282F30E013
:101770008B81882F90E0A90102C0559547958A95E5
:10178000E2F7CA018170EC81FD81808313C0E0E340
:10179000F0E08081282F30E08B81882F90E0A90134
:1017A00002C0559547958A95E2F7CA018170EC8190
:1017B000FD81808381E0898305C083E0898302C045
:1017C00082E08983898127960FB6F894DEBF0FBE29
:1017D000CDBFCF91DF910895DF93CF9300D000D09C
:1017E000CDB7DEB79C838B831A828B819C81009757
:1017F00009F45DC01982198255C08981282F30E013
:10180000C901880F991F280F391F8B819C81FC010A
:10181000E20FF31F40818981282F30E0C901880F32
:10182000991F280F391F8B819C81FC01E20FF31F48
:101830009181842F692F40E00E94E8088A83898182
:10184000282F30E0C901880F991F280F391F8B817D
:101850009C81FC01E20FF31F50818981282F30E029
:10186000C901880F991F280F391F8B819C81FC01AA
:10187000E20FF31F41818981282F30E0C901880FD1
:10188000991F280F391F8B819C81FC01E20FF31FE8
:101890009281852F642F492F0E94D4098A838981E0
:1018A0008F5F89838981833008F4A7CF02C082E0EB
:1018B0008A838A810F900F900F900F90CF91DF91C4
:1018C0000895DF93CF9300D000D00F92CDB7DEB74D
:1018D0009B838A837D836C8319828A819B81009795
:1018E00091F08C819D81009771F0EA81FB8180816C
:1018F000EA81FB8191812C813D81692FA9010E94A0
:101900004E0B898302C082E0898389810F900F90FA
:101910000F900F900F90CF91DF910895DF93CF93A9
:10192000CDB7DEB72A970FB6F894DEBF0FBECDBF96
:10193000998788871F821E821D8219821A821B82C4
:101940001C8288859985009709F435C31E822EC3B1
:101950008E81482F50E0CA01880F991F9C01220FE9
:10196000331F220F331F220F331F820F931F9C013F
:10197000240F351F88859985FC01E20FF31F6081D4
:101980008E81482F50E0CA01880F991F9C01220FB9
:10199000331F220F331F220F331F820F931F9C010F
:1019A000240F351F88859985FC01E20FF31F918173
:1019B000862F692F41E00E94E808282F30E040E0A0
:1019C00050E089819A81AB81BC81822B932BA42B1F
:1019D000B52B89839A83AB83BC838E81482F50E0DB
:1019E000CA01880F991F9C01220F331F220F331F3A
:1019F000220F331F820F931F9C01240F351F8885F0
:101A00009985FC01E20FF31F62818E81482F50E01F
:101A1000CA01880F991F9C01220F331F220F331F09
:101A2000220F331F820F931F9C01240F351F8885BF
:101A30009985FC01E20FF31F9381862F692F41E006
:101A40000E94E808882F90E0880F991F880F991F3F
:101A5000880F991F9C01442737FD4095542F898199
:101A60009A81AB81BC81822B932BA42BB52B8983CC
:101A70009A83AB83BC838E81482F50E0CA01880FC4
:101A8000991F9C01220F331F220F331F220F331F78
:101A9000820F931F9C01240F351F88859985FC01B7
:101AA000E20FF31F64818E81482F50E0CA01880F36
:101AB000991F9C01220F331F220F331F220F331F48
:101AC000820F931F9C01240F351F88859985FC0187
:101AD000E20FF31F9581862F692F41E00E94E808ED
:101AE000882F90E000249695879507949695879582
:101AF0000794982F802D9C01442737FD4095542F43
:101B000089819A81AB81BC81822B932BA42BB52B2D
:101B100089839A83AB83BC838E81482F50E0CA01AE
:101B2000880F991F9C01220F331F220F331F220F92
:101B3000331F820F931F9C01240F351F88859985C1
:101B4000FC01E20FF31F66818E81482F50E0CA012D
:101B5000880F991F9C01220F331F220F331F220F62
:101B6000331F820F931F9C01240F351F8885998591
:101B7000FC01E20FF31F9781862F692F41E00E943D
:101B8000E808882F90E0982F8827990F9C01442718
:101B900037FD4095542F89819A81AB81BC81822B7E
:101BA000932BA42BB52B89839A83AB83BC838E8123
:101BB000482F50E0CA01880F991F9C01220F331F44
:101BC000220F331F220F331F820F931F9C01240FFC
:101BD000351F88859985FC01E20FF31F60858E8192
:101BE000482F50E0CA01880F991F9C01220F331F14
:101BF000220F331F220F331F820F931F9C01240FCC
:101C0000351F88859985FC01E20FF31F9185862F8A
:101C1000692F41E00E94E808882F90E0982F8827DC
:101C20009295907F9C01442737FD4095542F8981E0
:101C30009A81AB81BC81822B932BA42BB52B8983FA
:101C40009A83AB83BC838E81482F50E0CA01880FF2
:101C5000991F9C01220F331F220F331F220F331FA6
:101C6000820F931F9C01240F351F88859985FC01E5
:101C7000E20FF31F62858E81482F50E0CA01880F62
:101C8000991F9C01220F331F220F331F220F331F76
:101C9000820F931F9C01240F351F88859985FC01B5
:101CA000E20FF31F9385862F692F41E00E94E80819
:101CB000882F90E0A0E0B0E09C01AD01012E1FE074
:101CC000220F331F441F551F1A95D1F7102D8981FC
:101CD0009A81AB81BC81822B932BA42BB52B89835A
:101CE0009A83AB83BC838E81482F50E0CA01880F52
:101CF000991F9C01220F331F220F331F220F331F06
:101D0000820F931F9C01240F351F88859985FC0144
:101D1000E20FF31F64858E81482F50E0CA01880FBF
:101D2000991F9C01220F331F220F331F220F331FD5
:101D3000820F931F9C01240F351F88859985FC0114
:101D4000E20FF31F9585862F692F41E00E94E80876
:101D5000882F90E0A0E0B0E09C01AD01012E12E1DF
:101D6000220F331F441F551F1A95D1F7102D89815B
:101D70009A81AB81BC81822B932BA42BB52B8983B9
:101D80009A83AB83BC8385E18D838E81482F50E09D
:101D9000CA01880F991F9C01220F331F220F331F86
:101DA000220F331F820F931F9C01240F351F88853C
:101DB0009985FC01E20FF31F86858230D9F48E816C
:101DC000482F50E0CA01880F991F9C01220F331F32
:101DD000220F331F220F331F820F931F9C01240FEA
:101DE000351F88859985FC01E20FF31F87858230B6
:101DF00009F452C08E81482F50E0CA01880F991F04
:101E00009C01220F331F220F331F220F331F820F1B
:101E1000931F9C01240F351F88859985FC01E20FD3
:101E2000F31F66858E81482F50E0CA01880F991FE5
:101E30009C01220F331F220F331F220F331F820FEB
:101E4000931F9C01240F351F88859985FC01E20FA3
:101E5000F31F9785862F692F41E00E94E808282FFD
:101E600030E040E050E08D81882F90E004C0220FE8
:101E7000331F441F551F8A95D2F789819A81AB8100
:101E8000BC81822B932BA42BB52B89839A83AB83A4
:101E9000BC838D818D5F8D838E81482F50E0CA0178
:101EA000880F991F9C01220F331F220F331F220F0F
:101EB000331F820F931F9C01240F351F888599853E
:101EC000FC01E20FF31F80898230D9F48E81482F04
:101ED00050E0CA01880F991F9C01220F331F220F67
:101EE000331F220F331F820F931F9C01240F351FB6
:101EF00088859985FC01E20FF31F8189823009F4FE
:101F000052C08E81482F50E0CA01880F991F9C0152
:101F1000220F331F220F331F220F331F820F931FF5
:101F20009C01240F351F88859985FC01E20FF31F62
:101F300060898E81482F50E0CA01880F991F9C014B
:101F4000220F331F220F331F220F331F820F931FC5
:101F50009C01240F351F88859985FC01E20FF31F32
:101F60009189862F692F41E00E94E808282F30E0F0
:101F700040E050E08D81882F90E004C0220F331F95
:101F8000441F551F8A95D2F789819A81AB81BC8104
:101F9000822B932BA42BB52B89839A83AB83BC8391
:101FA0008D818D5F8D838E818F5F8E838E81823058
:101FB00008F4CECC02C082E08F831E821EC08E81C8
:101FC000282F30E089819A81AB81BC81022E04C028
:101FD000B695A795979587950A94D2F787709070D4
:101FE000A070B07081309105A105B10519F08F8105
:101FF0008A870BC08E818D5F8E839E818D8198171D
:10200000F0F281E08F838F818A878A852A960FB6C6
:10201000F894DEBF0FBECDBFCF91DF910895DF935F
:10202000CF93CDB7DEB76E970FB6F894DEBF0FBE75
:10203000CDBF8F8368871E821D8219821A821B8200
:102040001C8288858A3008F0F6C48F81823008F0BF
:10205000F2C48F81482F50E0CA01880F991F9C015C
:10206000220F331F220F331F220F331F820F931FA4
:10207000840F951FFC01EC56FE4F8081813009F0E2
:1020800040C28F81482F50E0CA01880F991F9C01E0
:10209000220F331F220F331F220F331F820F931F74
:1020A000840F951FFC01EE57FE4F60818F81482FF2
:1020B00050E0CA01880F991F9C01220F331F220F85
:1020C000331F220F331F820F931F840F951FFC01B4
:1020D000ED57FE4F20818885882F90E0FC01E85560
:1020E000FE4F8081982F9170862F622F492F0E947A
:1020F000D409282F30E040E050E089819A81AB81FB
:10210000BC81822B932BA42BB52B89839A83AB8321
:10211000BC838F81482F50E0CA01880F991F9C0112
:10212000220F331F220F331F220F331F820F931FE3
:10213000840F951FFC01EC57FE4F60818F81482F63
:1021400050E0CA01880F991F9C01220F331F220FF4
:10215000331F220F331F820F931F840F951FFC0123
:10216000EB57FE4F20818885882F90E0FC01E855D1
:10217000FE4F80818695982F9170862F622F492F70
:102180000E94D409882F90E0880F991F880F991F0B
:10219000880F991F9C01442737FD4095542F898152
:1021A0009A81AB81BC81822B932BA42BB52B898385
:1021B0009A83AB83BC838F81482F50E0CA01880F7C
:1021C000991F9C01220F331F220F331F220F331F31
:1021D000820F931F840F951FFC01EA57FE4F608109
:1021E0008F81482F50E0CA01880F991F9C01220F50
:1021F000331F220F331F220F331F820F931F840FB1
:10220000951FFC01E957FE4F20818885882F90E0BB
:10221000FC01E855FE4F808186958695982F917038
:10222000862F622F492F0E94D409882F90E0002426
:10223000969587950794969587950794982F802D66
:102240009C01442737FD4095542F89819A81AB81A9
:10225000BC81822B932BA42BB52B89839A83AB83D0
:10226000BC838F81482F50E0CA01880F991F9C01C1
:10227000220F331F220F331F220F331F820F931F92
:10228000840F951FFC01E857FE4F60818F81482F16
:1022900050E0CA01880F991F9C01220F331F220FA3
:1022A000331F220F331F820F931F840F951FFC01D2
:1022B000E757FE4F20818885882F90E0FC01E85584
:1022C000FE4F8081869586958695982F9170862FF2
:1022D000622F492F0E94D409882F90E0982F8827D9
:1022E000990F9C01442737FD4095542F89819A818D
:1022F000AB81BC81822B932BA42BB52B89839A8332
:10230000AB83BC838F81482F50E0CA01880F991F8F
:102310009C01220F331F220F331F220F331F820F06
:10232000931F840F951FFC01E657FE4F60818F813C
:10233000482F50E0CA01880F991F9C01220F331FBC
:10234000220F331F220F331F820F931F840F951FFD
:10235000FC01E557FE4F20818885882F90E0FC0125
:10236000E855FE4F808182958F70982F9170862F4F
:10237000622F492F0E94D409882F90E0982F882738
:102380009295907F9C01442737FD4095542F898179
:102390009A81AB81BC81822B932BA42BB52B898393
:1023A0009A83AB83BC838F81482F50E0CA01880F8A
:1023B000991F9C01220F331F220F331F220F331F3F
:1023C000820F931F840F951FFC01E457FE4F60811D
:1023D0008F81482F50E0CA01880F991F9C01220F5E
:1023E000331F220F331F220F331F820F931F840FBF
:1023F000951FFC01E357FE4F20818885882F90E0D0
:10240000FC01E855FE4F8081829586958770982F54
:102410009170862F622F492F0E94D409882F90E057
:10242000A0E0B0E09C01AD01012E1FE0220F331FA0
:10243000441F551F1A95D1F7102D89819A81AB81C0
:10244000BC81822B932BA42BB52B89839A83AB83DE
:10245000BC838F81482F50E0CA01880F991F9C01CF
:10246000220F331F220F331F220F331F820F931FA0
:10247000840F951FFC01E257FE4F60818F81482F2A
:1024800050E0CA01880F991F9C01220F331F220FB1
:10249000331F220F331F820F931F840F951FFC01E0
:1024A000E157FE4F20818885882F90E0FC01E85598
:1024B000FE4F80818295869586958370982F9170C6
:1024C000862F622F492F0E94D409882F90E0A0E028
:1024D000B0E09C01AD01012E12E1220F331F441F19
:1024E000551F1A95D1F7102D89819A81AB81BC8136
:1024F000822B932BA42BB52B89839A83AB83BC832C
:102500009CC28F81482F50E0CA01880F991F9C01FF
:10251000220F331F220F331F220F331F820F931FEF
:10252000840F951FFC01EC56FE4F8081882309F033
:102530007FC28F81482F50E0CA01880F991F9C01EC
:10254000220F331F220F331F220F331F820F931FBF
:10255000840F951FFC01EE57FE4F80818E8F8F8177
:10256000482F50E0CA01880F991F9C01220F331F8A
:10257000220F331F220F331F820F931F840F951FCB
:10258000FC01ED57FE4F80818D8F8885882F90E06C
:10259000FC01E855FE4F8081882F90E0817090709B
:1025A0001C8E009711F481E08C8F8E8D6D8D4C8D7B
:1025B0000E94D409282F30E040E050E089819A81C0
:1025C000AB81BC81822B932BA42BB52B89839A835F
:1025D000AB83BC838F81482F50E0CA01880F991FBD
:1025E0009C01220F331F220F331F220F331F820F34
:1025F000931F840F951FFC01EC57FE4F80818B8F3A
:102600008F81482F50E0CA01880F991F9C01220F2B
:10261000331F220F331F220F331F820F931F840F8C
:10262000951FFC01EB57FE4F80818A8F8885882F8C
:1026300090E0FC01E855FE4F80818695882F90E060
:1026400081709070198E009711F481E0898F8B8DC5
:102650006A8D498D0E94D409882F90E0880F991FB8
:10266000880F991F880F991F9C01442737FD4095BB
:10267000542F89819A81AB81BC81822B932BA42B0F
:10268000B52B89839A83AB83BC838F81482F50E01D
:10269000CA01880F991F9C01220F331F220F331F7D
:1026A000220F331F820F931F840F951FFC01EA57DF
:1026B000FE4F8081888F8F81482F50E0CA01880F9C
:1026C000991F9C01220F331F220F331F220F331F2C
:1026D000820F931F840F951FFC01E957FE4F8081E5
:1026E0008F8B8885882F90E0FC01E855FE4F808114
:1026F00086958695882F90E0817090701E8A00974D
:1027000011F481E08E8B888D6F894E890E94D409E7
:10271000882F90E000249695879507949695879545
:102720000794982F802D9C01442737FD4095542F06
:1027300089819A81AB81BC81822B932BA42BB52BF1
:1027400089839A83AB83BC838F81482F50E0CA0171
:10275000880F991F9C01220F331F220F331F220F56
:10276000331F820F931F840F951FFC01E857FE4F04
:1027700080818D8B8F81482F50E0CA01880F991F6F
:102780009C01220F331F220F331F220F331F820F92
:10279000931F840F951FFC01E757FE4F80818C8BA0
:1027A0008885882F90E0FC01E855FE4F8081869552
:1027B00086958695882F90E0817090701B8A00978F
:1027C00011F481E08B8B8D896C894B890E94D4092F
:1027D000882F90E0982F8827990F9C01442737FD78
:1027E0004095542F89819A81AB81BC81822B932B98
:1027F000A42BB52B89839A83AB83BC838F81482F0D
:1028000050E0CA01880F991F9C01220F331F220F2D
:10281000331F220F331F820F931F840F951FFC015C
:10282000E657FE4F80818A8B8F81482F50E0CA0186
:10283000880F991F9C01220F331F220F331F220F75
:10284000331F820F931F840F951FFC01E557FE4F26
:102850008081898B8885882F90E0FC01E855FE4FA8
:10286000808182958F70882F90E081709070188A97
:10287000009711F481E0888B8A89698948890E94D0
:10288000D409882F90E0982F88279295907F9C01FB
:10289000442737FD4095542F89819A81AB81BC81B3
:1028A000822B932BA42BB52B89839A83AB83BC8378
:1028B0008F81482F50E0CA01880F991F9C01220F79
:1028C000331F220F331F220F331F820F931F840FDA
:1028D000951FFC01E457FE4F80818F878F81482F21
:1028E00050E0CA01880F991F9C01220F331F220F4D
:1028F000331F220F331F820F931F840F951FFC017C
:10290000E357FE4F80818E878885882F90E0FC01F9
:10291000E855FE4F8081829586958770882F90E0DC
:10292000817090701D86009711F481E08D878F85EE
:102930006E854D850E94D409882F90E0A0E0B0E01C
:102940009C01AD01012E1FE0220F331F441F551FB4
:102950001A95D1F7102D89819A81AB81BC81822B88
:10296000932BA42BB52B89839A83AB83BC838F8154
:10297000482F50E0CA01880F991F9C01220F331F76
:10298000220F331F220F331F820F931F840F951FB7
:10299000FC01E257FE4F80818C878F81482F50E0E9
:1029A000CA01880F991F9C01220F331F220F331F6A
:1029B000220F331F820F931F840F951FFC01E157D5
:1029C000FE4F80818B878885882F90E0FC01E85539
:1029D000FE4F80818295869586958370882F90E042
:1029E000817090701A86009711F481E08A878C8537
:1029F0006B854A850E94D409882F90E0A0E0B0E062
:102A00009C01AD01012E12E1220F331F441F551FFF
:102A10001A95D1F7102D89819A81AB81BC81822BC7
:102A2000932BA42BB52B89839A83AB83BC8305C0DE
:102A300083E08E8302C083E08E831D821EC08D8161
:102A4000282F30E089819A81AB81BC81022E04C09D
:102A5000B695A795979587950A94D2F78770907049
:102A6000A070B07081309105A105B10519F08E817B
:102A700089870AC08D818D5F8D838D818531F8F2C4
:102A800081E08E838E81898789856E960FB6F89452
:102A9000DEBF0FBECDBFCF91DF910895DF93CF93FF
:102AA00000D0CDB7DEB78A8319828A81823008F0E0
:102AB000C2C08A81482F50E0CA01880F991F9C012B
:102AC000220F331F220F331F220F331F820F931F3A
:102AD000840F951FFC01E057FE4F80818230C1F4C6
:102AE0008A81482F50E0CA01880F991F9C01220F4C
:102AF000331F220F331F220F331F820F931F840FA8
:102B0000951FFC01EF56FE4F8081823009F495C07D
:102B10008A81482F50E0CA01880F991F9C01220F1B
:102B2000331F220F331F220F331F820F931F840F77
:102B3000951FFC01EC56FE4F8081813089F58A811A
:102B4000482F50E0CA01880F991F9C01220F331FA4
:102B5000220F331F220F331F820F931F840F951FE5
:102B6000FC01E057FE4F60818A81482F50E0CA0186
:102B7000880F991F9C01220F331F220F331F220F32
:102B8000331F820F931F840F951FFC01EF56FE4FDA
:102B90009081862F692F40E00E94D40989834DC01F
:102BA0008A81482F50E0CA01880F991F9C01220F8B
:102BB000331F220F331F220F331F820F931F840FE7
:102BC000951FFC01EC56FE4F8081882389F58A8190
:102BD000482F50E0CA01880F991F9C01220F331F14
:102BE000220F331F220F331F820F931F840F951F55
:102BF000FC01E057FE4F60818A81482F50E0CA01F6
:102C0000880F991F9C01220F331F220F331F220FA1
:102C1000331F820F931F840F951FFC01EF56FE4F49
:102C20009081862F692F41E00E94D409898305C0D5
:102C300083E0898302C083E0898389810F900F90AC
:102C4000CF91DF910895DF93CF9300D0CDB7DEB75A
:102C50008A8319828A81823008F0C2C08A81482F13
:102C600050E0CA01880F991F9C01220F331F220FC9
:102C7000331F220F331F820F931F840F951FFC01F8
:102C8000E057FE4F80818230C1F48A81482F50E0A6
:102C9000CA01880F991F9C01220F331F220F331F77
:102CA000220F331F820F931F840F951FFC01EF56D5
:102CB000FE4F8081823009F495C08A81482F50E010
:102CC000CA01880F991F9C01220F331F220F331F47
:102CD000220F331F820F931F840F951FFC01EC56A8
:102CE000FE4F8081813089F58A81482F50E0CA01EA
:102CF000880F991F9C01220F331F220F331F220FB1
:102D0000331F820F931F840F951FFC01E057FE4F66
:102D100060818A81482F50E0CA01880F991F9C0169
:102D2000220F331F220F331F220F331F820F931FD7
:102D3000840F951FFC01EF56FE4F9081862F692F5F
:102D400041E00E94D40989834DC08A81482F50E018
:102D5000CA01880F991F9C01220F331F220F331FB6
:102D6000220F331F820F931F840F951FFC01EC5617
:102D7000FE4F8081882389F58A81482F50E0CA015F
:102D8000880F991F9C01220F331F220F331F220F20
:102D9000331F820F931F840F951FFC01E057FE4FD6
:102DA00060818A81482F50E0CA01880F991F9C01D9
:102DB000220F331F220F331F220F331F820F931F47
:102DC000840F951FFC01EF56FE4F9081862F692FCF
:102DD00040E00E94D409898305C083E0898302C052
:102DE00083E0898389810F900F90CF91DF910895BF
:102DF000DF93CF9300D0CDB7DEB78A8319828A8163
:102E0000823008F0C2C08A81482F50E0CA01880F82
:102E1000991F9C01220F331F220F331F220F331FD4
:102E2000820F931F840F951FFC01EE56FE4F808189
:102E30008230C1F48A81482F50E0CA01880F991F5F
:102E40009C01220F331F220F331F220F331F820FCB
:102E5000931F840F951FFC01ED56FE4F8081823039
:102E600009F495C08A81482F50E0CA01880F991F44
:102E70009C01220F331F220F331F220F331F820F9B
:102E8000931F840F951FFC01EC56FE4F808181300B
:102E900089F58A81482F50E0CA01880F991F9C014B
:102EA000220F331F220F331F220F331F820F931F56
:102EB000840F951FFC01EE56FE4F60818A81482FDA
:102EC00050E0CA01880F991F9C01220F331F220F67
:102ED000331F220F331F820F931F840F951FFC0196
:102EE000ED56FE4F9081862F692F41E00E94D40954
:102EF00089834DC08A81482F50E0CA01880F991FED
:102F00009C01220F331F220F331F220F331F820F0A
:102F1000931F840F951FFC01EC56FE4F8081882380
:102F200089F58A81482F50E0CA01880F991F9C01BA
:102F3000220F331F220F331F220F331F820F931FC5
:102F4000840F951FFC01EE56FE4F60818A81482F49
:102F500050E0CA01880F991F9C01220F331F220FD6
:102F6000331F220F331F820F931F840F951FFC0105
:102F7000ED56FE4F9081862F692F40E00E94D409C4
:102F8000898305C083E0898302C083E089838981C6
:102F90000F900F90CF91DF910895DF93CF9300D0E2
:102FA0000F92CDB7DEB78A8319828A81823008F00A
:102FB000C5C08A81482F50E0CA01880F991F9C0123
:102FC000220F331F220F331F220F331F820F931F35
:102FD000840F951FFC01EE56FE4F80818230C1F4B4
:102FE0008A81482F50E0CA01880F991F9C01220F47
:102FF000331F220F331F220F331F820F931F840FA3
:10300000951FFC01ED56FE4F8081823009F493C07C
:103010008A81482F50E0CA01880F991F9C01220F16
:10302000331F220F331F220F331F820F931F840F72
:10303000951FFC01EC56FE4F8081813089F58A8115
:10304000482F50E0CA01880F991F9C01220F331F9F
:10305000220F331F220F331F820F931F840F951FE0
:10306000FC01EE56FE4F60818A81482F50E0CA0174
:10307000880F991F9C01220F331F220F331F220F2D
:10308000331F820F931F840F951FFC01ED56FE4FD7
:103090009081862F692F40E00E94D40989834BC01C
:1030A0008A81482F50E0CA01880F991F9C01220F86
:1030B000331F220F331F220F331F820F931F840FE2
:1030C000951FFC01EC56FE4F8081882389F58A818B
:1030D000482F50E0CA01880F991F9C01220F331F0F
:1030E000220F331F220F331F820F931F840F951F50
:1030F000FC01EE56FE4F60818A81482F50E0CA01E4
:10310000880F991F9C01220F331F220F331F220F9C
:10311000331F820F931F840F951FFC01ED56FE4F46
:103120009081862F692F41E00E94D409898303C0D2
:1031300083E08B8305C089818B8302C083E08B830E
:103140008B810F900F900F90CF91DF910895EF92A8
:10315000FF920F931F93DF93CF93CDB7DEB72997DD
:103160000FB6F894DEBF0FBECDBF88871F821E82C8
:103170001D8219821A821B821C828885823008F087
:1031800033C48885482F50E0CA01880F991F9C01DD
:10319000220F331F220F331F220F331F820F931F63
:1031A000840F951FFC01EC56FE4F8081813009F0A1
:1031B000F4C18885482F50E0CA01880F991F9C01EF
:1031C000220F331F220F331F220F331F820F931F33
:1031D000840F951FFC01EE57FE4F60818885482FB4
:1031E00050E0CA01880F991F9C01220F331F220F44
:1031F000331F220F331F820F931F840F951FFC0173
:10320000ED57FE4F9081862F692F40E00E94D40930
:10321000282F30E040E050E089819A81AB81BC8169
:10322000822B932BA42BB52B89839A83AB83BC83EE
:103230008885482F50E0CA01880F991F9C01220FF2
:10324000331F220F331F220F331F820F931F840F50
:10325000951FFC01EC57FE4F60818885482F50E098
:10326000CA01880F991F9C01220F331F220F331FA1
:10327000220F331F820F931F840F951FFC01EB5702
:10328000FE4F9081862F692F40E00E94D409882F3D
:1032900090E0880F991F880F991F880F991F9C0134
:1032A000442737FD4095542F89819A81AB81BC8199
:1032B000822B932BA42BB52B89839A83AB83BC835E
:1032C0008885482F50E0CA01880F991F9C01220F62
:1032D000331F220F331F220F331F820F931F840FC0
:1032E000951FFC01EA57FE4F60818885482F50E00A
:1032F000CA01880F991F9C01220F331F220F331F11
:10330000220F331F820F931F840F951FFC01E95773
:10331000FE4F9081862F692F40E00E94D409882FAC
:1033200090E0002496958795079496958795079445
:10333000982F802D9C01442737FD4095542F89817B
:103340009A81AB81BC81822B932BA42BB52B8983D3
:103350009A83AB83BC838885482F50E0CA01880FCD
:10336000991F9C01220F331F220F331F220F331F7F
:10337000820F931F840F951FFC01E857FE4F608159
:103380008885482F50E0CA01880F991F9C01220FA1
:10339000331F220F331F220F331F820F931F840FFF
:1033A000951FFC01E757FE4F9081862F692F40E063
:1033B0000E94D409882F90E0982F8827990F9C01AC
:1033C000442737FD4095542F89819A81AB81BC8178
:1033D000822B932BA42BB52B89839A83AB83BC833D
:1033E0008885482F50E0CA01880F991F9C01220F41
:1033F000331F220F331F220F331F820F931F840F9F
:10340000951FFC01E657FE4F60818885482F50E0EC
:10341000CA01880F991F9C01220F331F220F331FEF
:10342000220F331F820F931F840F951FFC01E55756
:10343000FE4F9081862F692F40E00E94D409882F8B
:1034400090E0982F88279295907F9C01442737FD24
:103450004095542F89819A81AB81BC81822B932B1B
:10346000A42BB52B89839A83AB83BC838885482F93
:1034700050E0CA01880F991F9C01220F331F220FB1
:10348000331F220F331F820F931F840F951FFC01E0
:10349000E457FE4F60818885482F50E0CA01880FAD
:1034A000991F9C01220F331F220F331F220F331F3E
:1034B000820F931F840F951FFC01E357FE4F9081ED
:1034C000862F692F40E00E94D409882F90E0A0E069
:1034D000B0E09C01AD01012E1FE0220F331F441FFD
:1034E000551F1A95D1F7102D89819A81AB81BC8126
:1034F000822B932BA42BB52B89839A83AB83BC831C
:103500008885482F50E0CA01880F991F9C01220F1F
:10351000331F220F331F220F331F820F931F840F7D
:10352000951FFC01E257FE4F60818885482F50E0CF
:10353000CA01880F991F9C01220F331F220F331FCE
:10354000220F331F820F931F840F951FFC01E15739
:10355000FE4F9081862F692F40E00E94D409882F6A
:1035600090E0A0E0B0E09C01AD01012E12E1220F3D
:10357000331F441F551F1A95D1F7102D89819A8149
:10358000AB81BC81822B932BA42BB52B89839A838F
:10359000AB83BC8385E18D830FC28885482F50E0C3
:1035A000CA01880F991F9C01220F331F220F331F5E
:1035B000220F331F820F931F840F951FFC01EC56BF
:1035C000FE4F8081882309F0F4C18885482F50E0A0
:1035D000CA01880F991F9C01220F331F220F331F2E
:1035E000220F331F820F931F840F951FFC01EE578C
:1035F000FE4F60818885482F50E0CA01880F991FCF
:103600009C01220F331F220F331F220F331F820F03
:10361000931F840F951FFC01ED57FE4F9081862F5D
:10362000692F41E00E94D409282F30E040E050E0AB
:1036300089819A81AB81BC81822B932BA42BB52BE2
:1036400089839A83AB83BC838885482F50E0CA0165
:10365000880F991F9C01220F331F220F331F220F47
:10366000331F820F931F840F951FFC01EC57FE4FF1
:1036700060818885482F50E0CA01880F991F9C01FE
:10368000220F331F220F331F220F331F820F931F6E
:10369000840F951FFC01EB57FE4F9081862F692FF9
:1036A00041E00E94D409882F90E0880F991F880F6D
:1036B000991F880F991F9C01442737FD4095542F6F
:1036C00089819A81AB81BC81822B932BA42BB52B52
:1036D00089839A83AB83BC838885482F50E0CA01D5
:1036E000880F991F9C01220F331F220F331F220FB7
:1036F000331F820F931F840F951FFC01EA57FE4F63
:1037000060818885482F50E0CA01880F991F9C016D
:10371000220F331F220F331F220F331F820F931FDD
:10372000840F951FFC01E957FE4F9081862F692F6A
:1037300041E00E94D409882F90E000249695879557
:103740000794969587950794982F802D9C01442780
:1037500037FD4095542F89819A81AB81BC81822BA2
:10376000932BA42BB52B89839A83AB83BC83888549
:10377000482F50E0CA01880F991F9C01220F331F68
:10378000220F331F220F331F820F931F840F951FA9
:10379000FC01E857FE4F60818885482F50E0CA0140
:1037A000880F991F9C01220F331F220F331F220FF6
:1037B000331F820F931F840F951FFC01E757FE4FA5
:1037C0009081862F692F41E00E94D409882F90E0D4
:1037D000982F8827990F9C01442737FD4095542F37
:1037E00089819A81AB81BC81822B932BA42BB52B31
:1037F00089839A83AB83BC838885482F50E0CA01B4
:10380000880F991F9C01220F331F220F331F220F95
:10381000331F820F931F840F951FFC01E657FE4F45
:1038200060818885482F50E0CA01880F991F9C014C
:10383000220F331F220F331F220F331F820F931FBC
:10384000840F951FFC01E557FE4F9081862F692F4D
:1038500041E00E94D409882F90E0982F8827929504
:10386000907F9C01442737FD4095542F89819A8190
:10387000AB81BC81822B932BA42BB52B89839A839C
:10388000AB83BC838885482F50E0CA01880F991FFD
:103890009C01220F331F220F331F220F331F820F71
:1038A000931F840F951FFC01E457FE4F60818885AC
:1038B000482F50E0CA01880F991F9C01220F331F27
:1038C000220F331F220F331F820F931F840F951F68
:1038D000FC01E357FE4F9081862F692F41E00E9443
:1038E000D409882F90E0A0E0B0E09C01AD01012E4A
:1038F0001FE0220F331F441F551F1A95D1F7102DBB
:1039000089819A81AB81BC81822B932BA42BB52B0F
:1039100089839A83AB83BC838885482F50E0CA0192
:10392000880F991F9C01220F331F220F331F220F74
:10393000331F820F931F840F951FFC01E257FE4F28
:1039400060818885482F50E0CA01880F991F9C012B
:10395000220F331F220F331F220F331F820F931F9B
:10396000840F951FFC01E157FE4F9081862F692F30
:1039700041E00E94D409882F90E0A0E0B0E09C01D3
:10398000AD01012E12E1220F331F441F551F1A955E
:10399000D1F7102D89819A81AB81BC81822B932B29
:1039A000A42BB52B89839A83AB83BC8385E18D835C
:1039B00003C003E0098723C18885482F50E0CA016E
:1039C000880F991F9C01220F331F220F331F220FD4
:1039D000331F820F931F840F951FFC01EE56FE4F7D
:1039E00080818230E1F403C013E0198708C1888523
:1039F000482F50E0CA01880F991F9C01220F331FE6
:103A0000220F331F220F331F820F931F840F951F26
:103A1000FC01ED56FE4F8081823009F4C7C08885D5
:103A2000482F50E0CA01880F991F9C01220F331FB5
:103A3000220F331F220F331F820F931F840F951FF6
:103A4000FC01EC56FE4F8081813009F049C0888529
:103A5000482F50E0CA01880F991F9C01220F331F85
:103A6000220F331F220F331F820F931F840F951FC6
:103A7000FC01EE56FE4F60818885482F50E0CA0158
:103A8000880F991F9C01220F331F220F331F220F13
:103A9000331F820F931F840F951FFC01ED56FE4FBD
:103AA0009081862F692F40E00E94D409282F30E0B2
:103AB00040E050E08D81882F90E079018A0104C0B8
:103AC000EE0CFF1C001F111F8A95D2F7D801C70109
:103AD000982F8F81892B8F838D818D5F8D8364C01B
:103AE0008885482F50E0CA01880F991F9C01220F3A
:103AF000331F220F331F220F331F820F931F840F98
:103B0000951FFC01EC56FE4F8081882309F049C0C7
:103B10008885482F50E0CA01880F991F9C01220F09
:103B2000331F220F331F220F331F820F931F840F67
:103B3000951FFC01EE56FE4F60818885482F50E0AE
:103B4000CA01880F991F9C01220F331F220F331FB8
:103B5000220F331F820F931F840F951FFC01ED5618
:103B6000FE4F9081862F692F41E00E94D409282FB3
:103B700030E040E050E08D81882F90E079018A01AB
:103B800004C0EE0CFF1C001F111F8A95D2F7D8014C
:103B9000C701982F8F81892B8F838D818D5F8D83B6
:103BA00003C003E009872BC01E8221C013E01987E0
:103BB00026C08E81282F30E089819A81AB81BC811B
:103BC000022E04C0B695A795979587950A94D2F7CB
:103BD00087709070A070B07081309105A105B1051B
:103BE00019F08F8189870BC08E818D5F8E839E81B6
:103BF0008D819817F0F281E08F83EF80E9868985C7
:103C000029960FB6F894DEBF0FBECDBFCF91DF91DE
:103C10001F910F91FF90EF900895DF93CF93CDB751
:103C2000DEB727970FB6F894DEBF0FBECDBF1E825A
:103C30001A821B821C821D82198280E060E041E0B2
:103C40000E94E808282F30E040E050E08A819B8104
:103C5000AC81BD81822B932BA42BB52B8A839B83B4
:103C6000AC83BD8380E061E041E00E94E808882FDA
:103C700090E0880F991F880F991F880F991F9C014A
:103C8000442737FD4095542F8A819B81AC81BD81AB
:103C9000822B932BA42BB52B8A839B83AC83BD8370
:103CA00080E062E041E00E94E808882F90E0002474
:103CB000969587950794969587950794982F802DCC
:103CC0009C01442737FD4095542F8A819B81AC810C
:103CD000BD81822B932BA42BB52B8A839B83AC8332
:103CE000BD8381E060E041E00E94E808882F90E019
:103CF000982F8827990F9C01442737FD4095542F12
:103D00008A819B81AC81BD81822B932BA42BB52B07
:103D10008A839B83AC83BD8381E061E041E00E94A4
:103D2000E808882F90E0982F88279295907F9C0133
:103D3000442737FD4095542F8A819B81AC81BD81FA
:103D4000822B932BA42BB52B8A839B83AC83BD83BF
:103D500081E063E041E00E94E808882F90E0A0E065
:103D6000B0E09C01AD01012E1FE0220F331F441F64
:103D7000551F1A95D1F7102D8A819B81AC81BD8189
:103D8000822B932BA42BB52B8A839B83AC83BD837F
:103D900081E063E041E00E94E808882F90E0A0E025
:103DA000B0E09C01AD01012E12E1220F331F441F30
:103DB000551F1A95D1F7102D8A819B81AC81BD8149
:103DC000822B932BA42BB52B8A839B83AC83BD833F
:103DD00082E062E041E00E94E808882F90E0A0E0E5
:103DE000B0E09C01AD01012E15E1220F331F441FED
:103DF000551F1A95D1F7102D8A819B81AC81BD8109
:103E0000822B932BA42BB52B8A839B83AC83BD83FE
:103E100082E062E041E00E94E808882F90E0A0E0A4
:103E2000B0E0582F4427332722278A819B81AC8119
:103E3000BD81822B932BA42BB52B8A839B83AC83D0
:103E4000BD8319821EC08981282F30E08A819B8121
:103E5000AC81BD81022E04C0B695A7959795879534
:103E60000A94D2F787709070A070B070813091057D
:103E7000A105B10519F08E818F830AC089818D5FFC
:103E8000898389818B31F8F281E08E838E818F83E3
:103E90008F8127960FB6F894DEBF0FBECDBFCF91AE
:103EA000DF910895DF93CF93CDB7DEB728970FB694
:103EB000F894DEBF0FBECDBF8F831E821A821B8295
:103EC0001C821D8219828F818A3008F01BC18F816C
:103ED000882F90E0FC01EE54FE4F8081982F917066
:103EE00080E060E0492F0E94D409282F30E040E0B4
:103EF00050E08A819B81AC81BD81822B932BA42BC6
:103F0000B52B8A839B83AC83BD838F81882F90E000
:103F1000FC01EE54FE4F80818695982F917080E0D1
:103F200061E0492F0E94D409882F90E0880F991FE3
:103F3000880F991F880F991F9C01442737FD4095D2
:103F4000542F8A819B81AC81BD81822B932BA42B22
:103F5000B52B8A839B83AC83BD838F81882F90E0B0
:103F6000FC01EE54FE4F808186958695982F9170C6
:103F700080E062E0492F0E94D409882F90E000245D
:103F8000969587950794969587950794982F802DF9
:103F90009C01442737FD4095542F8A819B81AC8139
:103FA000BD81822B932BA42BB52B8A839B83AC835F
:103FB000BD838F81882F90E0FC01EE54FE4F8081FD
:103FC000869586958695982F917081E060E0492FBF
:103FD0000E94D409882F90E0982F8827990F9C0180
:103FE000442737FD4095542F8A819B81AC81BD8148
:103FF000822B932BA42BB52B8A839B83AC83BD830D
:104000008F81882F90E0FC01EE54FE4F80818295D5
:104010008F70982F917081E061E0492F0E94D40940
:10402000882F90E0982F88279295907F9C014427B5
:1040300037FD4095542F8A819B81AC81BD81822BB5
:10404000932BA42BB52B8A839B83AC83BD838F8159
:10405000882F90E0FC01EE54FE4F8081829586957A
:104060008770982F917081E062E0492F0E94D409F7
:10407000882F90E0A0E0B0E09C01AD01012E1FE090
:10408000220F331F441F551F1A95D1F7102D8A8117
:104090009B81AC81BD81822B932BA42BB52B8A8372
:1040A0009B83AC83BD838F81882F90E0FC01EE540D
:1040B000FE4F80818295869586958370982F9170AA
:1040C00081E063E0492F0E94D409882F90E0A0E0AE
:1040D000B0E09C01AD01012E12E1220F331F441FFD
:1040E000551F1A95D1F7102D8A819B81AC81BD8116
:1040F000822B932BA42BB52B8A839B83AC83BD830C
:10410000198221C083E0888725C08981282F30E06B
:104110008A819B81AC81BD81022E04C0B695A79592
:10412000979587950A94D2F787709070A070B070B9
:1041300081309105A105B10519F08E8188870AC0EB
:1041400089818D5F898389818531F8F281E08E8351
:104150008E818887888528960FB6F894DEBF0FBEBB
:10416000CDBFCF91DF910895DF93CF930F92CDB75D
:10417000DEB7198282E062E040E00E94D4098983C0
:1041800089810F90CF91DF910895DF93CF930F92A4
:10419000CDB7DEB7198282E062E041E00E94D40927
:1041A000898389810F90CF91DF910895DF93CF9319
:1041B0000F92CDB7DEB7198282E062E041E00E9443
:1041C000D409898389810F90CF91DF910895DF937E
:1041D000CF930F92CDB7DEB7198282E062E040E064
:1041E0000E94D409898389810F90CF91DF9108952E
:1041F000DF93CF93CDB7DEB727970FB6F894DEBF26
:104200000FBECDBF1E821A821B821C821D821982A4
:1042100080E060E040E00E94D409282F30E040E0D8
:1042200050E08A819B81AC81BD81822B932BA42B92
:10423000B52B8A839B83AC83BD8380E061E040E043
:104240000E94D409882F90E0880F991F880F991F2A
:10425000880F991F9C01442737FD4095542F8A8170
:104260009B81AC81BD81822B932BA42BB52B8A83A0
:104270009B83AC83BD8380E062E040E00E94D40970
:10428000882F90E0002496958795079496958795BA
:104290000794982F802D9C01442737FD4095542F7B
:1042A0008A819B81AC81BD81822B932BA42BB52B62
:1042B0008A839B83AC83BD8381E060E040E00E9401
:1042C000D409882F90E0982F8827990F9C014427C4
:1042D00037FD4095542F8A819B81AC81BD81822B13
:1042E000932BA42BB52B8A839B83AC83BD8381E066
:1042F00061E040E00E94D409882F90E0982F882741
:104300009295907F9C01442737FD4095542F8A81D8
:104310009B81AC81BD81822B932BA42BB52B8A83EF
:104320009B83AC83BD8381E062E040E00E94D409BE
:10433000882F90E0A0E0B0E09C01AD01012E1FE0CD
:10434000220F331F441F551F1A95D1F7102D8A8154
:104350009B81AC81BD81822B932BA42BB52B8A83AF
:104360009B83AC83BD8381E063E040E00E94D4097D
:10437000882F90E0A0E0B0E09C01AD01012E12E199
:10438000220F331F441F551F1A95D1F7102D8A8114
:104390009B81AC81BD81822B932BA42BB52B8A836F
:1043A0009B83AC83BD8319821EC08981282F30E096
:1043B0008A819B81AC81BD81022E04C0B695A795F0
:1043C000979587950A94D2F787709070A070B07017
:1043D00081309105A105B10519F08E818F830AC046
:1043E00089818D5F898389818531F8F281E08E83AF
:1043F0008E818F838F8127960FB6F894DEBF0FBE14
:10440000CDBFCF91DF910895DF93CF9300D000D03F
:104410000F92CDB7DEB79C838B831A828B819C81F0
:10442000009709F424C1198219821CC18981882F3F
:1044300090E09C01220F331F220F331F8B819C8140
:10444000FC01E20FF31F40818981882F90E09C01DD
:10445000220F331F220F331F8B819C81FC01E20F3F
:10446000F31F9181842F692F41E00E94E8088A831D
:104470008981882F90E09C01220F331F220F331F68
:104480008B819C81FC01E20FF31F8281883009F04F
:1044900069C08981882F90E09C01220F331F220F71
:1044A000331F8B819C81FC01E20FF31F83818A30D3
:1044B00019F58981882F90E09C01220F331F220F6C
:1044C000331F8B819C81FC01E20FF31F40818981A6
:1044D000882F90E09C01220F331F220F331F8B8106
:1044E0009C81FC01E20FF31F9181842F692F40E032
:1044F0000E94D4098A83B3C08981882F90E09C01EF
:10450000220F331F220F331F8B819C81FC01E20F8E
:10451000F31F83818B3019F58981882F90E09C01EE
:10452000220F331F220F331F8B819C81FC01E20F6E
:10453000F31F40818981882F90E09C01220F331F57
:10454000220F331F8B819C81FC01E20FF31F9181AD
:10455000842F692F41E00E94D4098A8380C083E0C0
:104560008D8389C08981882F90E09C01220F331FA1
:10457000220F331F8B819C81FC01E20FF31F82818C
:10458000893009F069C08981882F90E09C01220F51
:10459000331F220F331F8B819C81FC01E20FF31F1D
:1045A00083818A3019F58981882F90E09C01220F40
:1045B000331F220F331F8B819C81FC01E20FF31FFD
:1045C00040818981882F90E09C01220F331F220FA8
:1045D000331F8B819C81FC01E20FF31F9181842F9B
:1045E000692F41E00E94D4098A8339C08981882FCC
:1045F00090E09C01220F331F220F331F8B819C817F
:10460000FC01E20FF31F83818B3019F58981882F1C
:1046100090E09C01220F331F220F331F8B819C815E
:10462000FC01E20FF31F40818981882F90E09C01FB
:10463000220F331F220F331F8B819C81FC01E20F5D
:10464000F31F9181842F692F40E00E94D4098A834F
:1046500006C083E08D830FC083E08D830CC0898109
:104660008F5F89838981833008F4E0CE02C082E0C5
:104670008A838A818D838D810F900F900F900F9088
:104680000F90CF91DF910895DF93CF9300D000D0AA
:10469000CDB7DEB79B838A8319828A819B8100977D
:1046A00041F1EA81FB818281883061F4EA81FB81FA
:1046B0008081EA81FB819181692F40E00E94D409C9
:1046C000898314C0EA81FB818281893061F4EA81A7
:1046D000FB818081EA81FB819181692F41E00E9409
:1046E000D409898303C083E08C8305C089818C83CE
:1046F00002C082E08C838C810F900F900F900F90FE
:10470000CF91DF910895DF93CF9300D000D0CDB744
:10471000DEB79B838A8319828A819B81009741F14E
:10472000EA81FB818281883061F4EA81FB818081AA
:10473000EA81FB819181692F41E00E94D40989833C
:1047400014C0EA81FB818281893061F4EA81FB81B6
:104750008081EA81FB819181692F40E00E94D40928
:10476000898303C083E08C8305C089818C8302C068
:1047700082E08C838C810F900F900F900F90CF91DF
:10478000DF910895DF93CF93CDB7DEB7E9970FB6EA
:10479000F894DEBF0FBECDBF19AE80E060E041E00F
:1047A0000E94E80880E061E041E00E94E80880E0C3
:1047B00062E041E00E94E80881E067E041E00E9499
:1047C000E80881E066E041E00E94E80881E065E0F9
:1047D00041E00E94E80881E064E041E00E94E808CE
:1047E00080E090E0ACE0B2E48DAB9EABAFABB8AF95
:1047F0006DA97EA98FA998AD20E030E04AE753E487
:104800000E941702DC01CB0189AB9AABABABBCAB0E
:1048100069A97AA98BA99CA920E030E040E85FE370
:104820000E941D0488232CF481E090E098AB8FA7B0
:104830003FC069A97AA98BA99CA920E03FEF4FE767
:1048400057E40E94BD0318164CF56DA97EA98FA9E7
:1048500098AD20E030E040E251E40E941702DC0114
:10486000CB01BC01CD010E944100DC01CB0198AB22
:104870008FA70FC089E190E09EA78DA78DA59EA56B
:104880000197F1F79EA78DA78FA598A9019798ABDF
:104890008FA78FA598A9009769F714C069A97AA96D
:1048A0008BA99CA90E944100DC01CB0198AB8FA78A
:1048B0008FA598A99CA78BA78BA59CA50197F1F71D
:1048C0009CA78BA782E063E041E00E94E80882E0B9
:1048D00062E041E00E94E80882E061E041E00E947D
:1048E000E80882E060E041E00E94E80888E30E9476
:1048F000FD2880E090E0A0E8BFE38FA398A7A9A7D8
:10490000BAA76FA178A589A59AA520E030E04AE76B
:1049100053E40E941702DC01CB018BA39CA3ADA33F
:10492000BEA36BA17CA18DA19EA120E030E040E858
:104930005FE30E941D0488232CF481E090E09AA399
:1049400089A33FC06BA17CA18DA19EA120E03FEF78
:104950004FE757E40E94BD0318164CF56FA178A5E8
:1049600089A59AA520E030E040E251E40E941702B8
:10497000DC01CB01BC01CD010E944100DC01CB0177
:104980009AA389A30FC089E190E098A38F8F8F8DA0
:1049900098A10197F1F798A38F8F89A19AA1019708
:1049A0009AA389A389A19AA1009769F714C06BA162
:1049B0007CA18DA19EA10E944100DC01CB019AA3A4
:1049C00089A389A19AA19E8F8D8F8D8D9E8D019730
:1049D000F1F79E8F8D8F8FE00E94FD2880E090E0A0
:1049E000A0E8BFE3898F9A8FAB8FBC8F698D7A8DDA
:1049F0008B8D9C8D20E030E04AE753E40E94170243
:104A0000DC01CB018D8B9E8BAF8BB88F6D897E893E
:104A10008F89988D20E030E040E85FE30E941D041C
:104A200088232CF481E090E09C8B8B8B3FC06D89B8
:104A30007E898F89988D20E03FEF4FE757E40E94F1
:104A4000BD0318164CF5698D7A8D8B8D9C8D20E0F9
:104A500030E040E251E40E941702DC01CB01BC01CE
:104A6000CD010E944100DC01CB019C8B8B8B0FC0E0
:104A700089E190E09A8B898B89899A890197F1F76E
:104A80009A8B898B8B899C8901979C8B8B8B8B89CB
:104A90009C89009769F714C06D897E898F89988DEC
:104AA0000E944100DC01CB019C8B8B8B8B899C8904
:104AB000988B8F878F8598890197F1F7988B8F87CF
:104AC00081E00E94FD2880E090E0A0E0B0E48B87C8
:104AD0009C87AD87BE876B857C858D859E8520E014
:104AE00030E04AE753E40E941702DC01CB018F83D8
:104AF0009887A987BA876F81788589859A8520E00C
:104B000030E040E85FE30E941D0488232CF481E03C
:104B100090E09E838D833FC06F81788589859A85DB
:104B200020E03FEF4FE757E40E94BD0318164CF515
:104B30006B857C858D859E8520E030E040E251E4E8
:104B40000E941702DC01CB01BC01CD010E94410093
:104B5000DC01CB019E838D830FC089E190E09C83B3
:104B60008B838B819C810197F1F79C838B838D8153
:104B70009E8101979E838D838D819E81009769F729
:104B800014C06F81788589859A850E944100DC0177
:104B9000CB019E838D838D819E819A8389838981B8
:104BA0009A810197F1F79A83898386E00E94FD2814
:104BB00089ADE9960FB6F894DEBF0FBECDBFCF9199
:104BC000DF910895DF93CF9300D0CDB7DEB78A830E
:104BD000198280E060E040E00E94D4098A810E944E
:104BE000A02789810F900F90CF91DF910895DF93D7
:104BF000CF9300D0CDB7DEB78A83198280E060E022
:104C000041E00E94D4098A810E94A02789810F90E7
:104C10000F90CF91DF910895DF93CF93CDB7DEB79B
:104C20002A970FB6F894DEBF0FBECDBF6F8378878B
:104C300089879A871E821D8280E090E0A0E8BFE30A
:104C400089839A83AB83BC8380E060E041E00E946B
:104C5000D4098F819885A985BA858A309105A105E7
:104C6000B10508F58F819885A985BA85C096A11DE3
:104C7000B11D8F839887A987BA878F810E94A0274B
:104C800081E08E839AC069817A818B819C8120E04A
:104C900030E040E251E40E941702DC01CB0189833D
:104CA0009A83AB83BC836F81788589859A850E94BE
:104CB000FF04DC01CB01BC01CD0129813A814B818C
:104CC0005C810E94BD031816F4F269817A818B81A0
:104CD0009C8120E030E040E251E40E941103DC01BD
:104CE000CB0189839A83AB83BC8358C06F8178855D
:104CF00089859A850E94FF04DC01CB01BC01CD01AE
:104D000029813A814B815C810E941103DC01CB0136
:104D1000BC01CD010E944100DC01CB018D838D815E
:104D2000882F90E0AA2797FDA095BA2FBC01CD014E
:104D30000E944D04DC01CB01BC01CD0129813A81E7
:104D40004B815C810E941702DC01CB01BC01CD01CB
:104D50000E9441009B01AC018F819885A985BA858D
:104D6000821B930BA40BB50B8F839887A987BA87F7
:104D70008D81805D8D8369817A818B819C8120E02A
:104D800030E040E251E40E941103DC01CB01898351
:104D90009A83AB83BC838D810E94A02769817A812D
:104DA0008B819C8120E030E040E85FE30E94ED03CE
:104DB00088230CF09BCF81E08E838E812A960FB6DC
:104DC000F894DEBF0FBECDBFCF91DF910895DF9382
:104DD000CF9300D000D000D0CDB7DEB78B836C83EB
:104DE0005E834D831A82198280E40E94FD2880E050
:104DF00060E041E00E94D40919820EC08981282F09
:104E000030E08D819E81FC01E20FF31F80810E94C2
:104E1000A02789818F5F89838981883078F38B818E
:104E20006C810E94782780E060E041E00E94D40914
:104E300080E00E94A0278A8126960FB6F894DEBFF4
:104E40000FBECDBFCF91DF910895DF93CF9300D0F8
:104E500000D0CDB7DEB79C838B831A82198280E0A5
:104E600060E041E00E94D4098B819C81009709F1A8
:104E700018C0EB81FC8180810E94A0278B819C81DE
:104E800001969C838B8389818F5F8983898180319F
:104E900041F480EC0E94FD2880E060E041E00E9447
:104EA000D409EB81FC818081882319F781E08A8312
:104EB00002C082E08A838A810F900F900F900F903A
:104EC000CF91DF910895DF93CF9300D00F92CDB7AC
:104ED000DEB78A836B8319828A816B810E9478276F
:104EE000898389810F900F900F90CF91DF91089562
:104EF000DF93CF9300D000D00F92CDB7DEB78C8375
:104F00006D83198280E88A8380EC8B838C81882F63
:104F100090E09C0121503040CE010296FC01E20F4E
:104F2000F31F90818D81890F81500E94E225898134
:104F30000F900F900F900F900F90CF91DF910895E9
:104F4000DF93CF93CDB7DEB76D970FB6F894DEBF82
:104F50000FBECDBF8D8F80E061E040E00E94D4099C
:104F600080E062E040E00E94D4098D8D982F991F67
:104F70009927991F81E067E0492F0E94D4098D8D00
:104F80008295869586958370982F917081E066E072
:104F9000492F0E94D4098D8D829586958770982F10
:104FA000917081E065E0492F0E94D4098D8D829532
:104FB0008F70982F917081E064E0492F0E94D4098E
:104FC0008D8D869586958695982F917082E063E009
:104FD000492F0E94D4098D8D86958695982F9170C2
:104FE00082E062E0492F0E94D4098D8D8695982F2A
:104FF000917082E061E0492F0E94D4098D8D982F35
:10500000917082E060E0492F0E94D40980E062E064
:1050100041E00E94D40980E090E0A0E2B1E4898FF1
:105020009A8FAB8FBC8F698D7A8D8B8D9C8D20E094
:1050300030E04AE753E40E941702DC01CB018D8B7C
:105040009E8BAF8BB88F6D897E898F89988D20E07C
:1050500030E040E85FE30E941D0488232CF481E0E7
:1050600090E09C8B8B8B3FC06D897E898F89988D5A
:1050700020E03FEF4FE757E40E94BD0318164CF5C0
:10508000698D7A8D8B8D9C8D20E030E040E251E47B
:105090000E941702DC01CB01BC01CD010E9441003E
:1050A000DC01CB019C8B8B8B0FC089E190E09A8B4C
:1050B000898B89899A890197F1F79A8B898B8B89DA
:1050C0009C8901979C8B8B8B8B899C89009769F7B6
:1050D00014C06D897E898F89988D0E944100DC0102
:1050E000CB019C8B8B8B8B899C89988B8F878F8531
:1050F00098890197F1F7988B8F8780E062E040E014
:105100000E94D40980E090E0A0E2B1E48B879C8704
:10511000AD87BE876B857C858D859E8520E030E0E0
:105120004AE753E40E941702DC01CB018F83988782
:10513000A987BA876F81788589859A8520E030E0D4
:1051400040E85FE30E941D0488232CF481E090E096
:105150009E838D833FC06F81788589859A8520E005
:105160003FEF4FE757E40E94BD0318164CF56B85DF
:105170007C858D859E8520E030E040E251E40E94F0
:105180001702DC01CB01BC01CD010E944100DC0112
:10519000CB019E838D830FC089E190E09C838B833C
:1051A0008B819C810197F1F79C838B838D819E81FC
:1051B00001979E838D838D819E81009769F714C02E
:1051C0006F81788589859A850E944100DC01CB0139
:1051D0009E838D838D819E819A83898389819A8123
:1051E0000197F1F79A8389836D960FB6F894DEBF25
:1051F0000FBECDBFCF91DF910895DF93CF93CDB791
:10520000DEB76D970FB6F894DEBF0FBECDBF8D8FA2
:1052100080E060E040E00E94D40980E062E040E08D
:105220000E94D4098D8D883209F019C18D8D982F77
:10523000991F9927991F81E067E0492F0E94D4099F
:105240008D8D8295869586958370982F917081E0DB
:1052500066E0492F0E94D4098D8D829586958770CE
:10526000982F917081E065E0492F0E94D4098D8DBF
:1052700082958F70982F917081E064E0492F0E9491
:10528000D40980E062E041E00E94D40980E090E02F
:10529000A0E2B1E4898F9A8FAB8FBC8F698D7A8D34
:1052A0008B8D9C8D20E030E04AE753E40E9417028A
:1052B000DC01CB018D8B9E8BAF8BB88F6D897E8986
:1052C0008F89988D20E030E040E85FE30E941D0464
:1052D00088232CF481E090E09C8B8B8B3FC06D8900
:1052E0007E898F89988D20E03FEF4FE757E40E9439
:1052F000BD0318164CF5698D7A8D8B8D9C8D20E041
:1053000030E040E251E40E941702DC01CB01BC0115
:10531000CD010E944100DC01CB019C8B8B8B0FC027
:1053200089E190E09A8B898B89899A890197F1F7B5
:105330009A8B898B8B899C8901979C8B8B8B8B8912
:105340009C89009769F714C06D897E898F89988D33
:105350000E944100DC01CB019C8B8B8B8B899C894B
:10536000988B8F878F8598890197F1F7988B8F8716
:1053700080E062E040E00E94D40980E090E0A8E490
:10538000B2E48B879C87AD87BE876B857C858D85D6
:105390009E8520E030E04AE753E40E941702DC01DA
:1053A000CB018F839887A987BA876F817885898594
:1053B0009A8520E030E040E85FE30E941D048823E6
:1053C0002CF481E090E09E838D833FC06F817885CF
:1053D00089859A8520E03FEF4FE757E40E94BD039F
:1053E00018164CF56B857C858D859E8520E030E018
:1053F00040E251E40E941702DC01CB01BC01CD0167
:105400000E944100DC01CB019E838D830FC089E1A6
:1054100090E09C838B838B819C810197F1F79C8327
:105420008B838D819E8101979E838D838D819E814B
:10543000009769F714C06F81788589859A850E94E5
:105440004100DC01CB019E838D838D819E819A83F7
:10545000898389819A810197F1F79A8389838D8D58
:105460000E94A0276D960FB6F894DEBF0FBECDBF89
:10547000CF91DF9108950F931F93DF93CF93CDB713
:10548000DEB7C95DD0400FB6F894DEBF0FBECDBF0A
:10549000CE0181589F4FC954DF4F99838883C75BE2
:1054A000D04088EF91E0C754DF4F99838883C95B70
:1054B000D04098E0C554DF4F9883CB5BD040C754B1
:1054C000DF4FE881F981C95BD0400080C754DF4FCE
:1054D00088819981C95BD0400196C754DF4F998379
:1054E0008883C95BD040C954DF4FE881F981C75B2D
:1054F000D0400082C954DF4F88819981C75BD0407A
:105500000196C954DF4F99838883C75BD040C55447
:10551000DF4F9881CB5BD0409150C554DF4F9883CB
:10552000CB5BD040C554DF4FE881CB5BD040EE234E
:1055300031F6CE0189579F4FC454DF4F998388833A
:10554000CC5BD04080EF91E0C254DF4F99838883D9
:10555000CE5BD04098E0C054DF4F9883C05CD04011
:10556000C254DF4FE881F981CE5BD0400080C25445
:10557000DF4F88819981CE5BD0400196C254DF4FC6
:1055800099838883CE5BD040C454DF4FE881F98192
:10559000CC5BD0400082C454DF4F88819981CC5BC2
:1055A000D0400196C454DF4F99838883CC5BD040B0
:1055B000C054DF4F9881C05CD0409150C054DF4F41
:1055C0009883C05CD040C054DF4FE881C05CD040BD
:1055D000EE2331F6CE0181579F4FCF53DF4F998392
:1055E0008883C15CD04088EE91E0CD53DF4F998332
:1055F0008883C35CD04098E0CB53DF4F9883C55C71
:10560000D040CD53DF4FE881F981C35CD0400080AA
:10561000CD53DF4F88819981C35CD0400196CD5333
:10562000DF4F99838883C35CD040CF53DF4FE8813D
:10563000F981C15CD0400082CF53DF4F88819981CE
:10564000C15CD0400196CF53DF4F99838883C15C02
:10565000D040CB53DF4F9881C55CD0409150CB53A5
:10566000DF4F9883C55CD040CB53DF4FE881C55CEA
:10567000D040EE2331F6CE0189569F4FCA53DF4FFB
:1056800099838883C65CD04080EE91E0C853DF4F99
:1056900099838883C85CD04098E0C653DF4F9883D5
:1056A000CA5CD040C853DF4FE881F981C85CD04064
:1056B0000080C853DF4F88819981C85CD040019633
:1056C000C853DF4F99838883C85CD040CA53DF4FEB
:1056D000E881F981C65CD0400082CA53DF4F8881DF
:1056E0009981C65CD0400196CA53DF4F9983888365
:1056F000C65CD040C653DF4F9881CA5CD040915001
:10570000C653DF4F9883CA5CD040C653DF4FE88151
:10571000CA5CD040EE2331F6CE0181569F4FC5536F
:10572000DF4F99838883CB5CD04088ED91E0C353F1
:10573000DF4F99838883CD5CD04098E0C153DF4F21
:105740009883CF5CD040C353DF4FE881F981CD5CB3
:10575000D0400080C353DF4F88819981CD5CD04019
:105760000196C353DF4F99838883CD5CD040C553E6
:10577000DF4FE881F981CB5CD0400082C553DF4F19
:1057800088819981CB5CD0400196C553DF4F9983C6
:105790008883CB5CD040C153DF4F9881CF5CD04031
:1057A0009150C153DF4F9883CF5CD040C153DF4F3E
:1057B000E881CF5CD040EE2331F6CE0189559F4F72
:1057C000C053DF4F99838883C05DD04080ED91E066
:1057D000CE52DF4F99838883C25DD04098E0CC528F
:1057E000DF4F9883C45DD040CE52DF4FE881F9810E
:1057F000C25DD0400080CE52DF4F88819981C25D6A
:10580000D0400196CE52DF4F99838883C25DD0404D
:10581000C053DF4FE881F981C05DD0400082C053A2
:10582000DF4F88819981C05DD0400196C053DF4F22
:1058300099838883C05DD040CC52DF4F9881C45D8E
:10584000D0409150CC52DF4F9883C45DD040CC52B1
:10585000DF4FE881C45DD040EE2331F6CE018155A3
:105860009F4FCB52DF4F99838883C55DD04088EC32
:1058700091E0C952DF4F99838883C75DD04098E09B
:10588000C752DF4F9883C95DD040C952DF4FE881CE
:10589000F981C75DD0400080C952DF4F888199816E
:1058A000C75DD0400196C952DF4F99838883C75D99
:1058B000D040CB52DF4FE881F981C55DD0400082F6
:1058C000CB52DF4F88819981C55DD0400196CB5284
:1058D000DF4F99838883C55DD040C752DF4F9881E1
:1058E000C95DD0409150C752DF4F9883C95DD04009
:1058F000C752DF4FE881C95DD040EE2331F60E94E8
:10590000C2238CE00E94E22582E068E00E946327C7
:1059100080E690E00E94252781E06FE00E946327E7
:10592000FE01E558FF4F80E090E0A8E4B3E48083F7
:105930009183A283B3838E0109581F4FFE01E5585E
:10594000FF4F608171818281938120E030E04AE7DE
:1059500053E40E941702DC01CB01F801808391839C
:10596000A283B383FE01E958FF4F60817181828178
:10597000938120E030E040E85FE30E941D0488232B
:1059800044F4FE01EB58FF4F81E090E09183808367
:1059900064C0FE01E958FF4F60817181828193816B
:1059A00020E03FEF4FE757E40E94BD0318160CF0CC
:1059B00043C0FE01E558FF4F608171818281938170
:1059C00020E030E040E251E40E941702DC01CB010C
:1059D0008E010B581F4FBC01CD010E944100DC011C
:1059E000CB01F801918380831FC0FE01ED58FF4F6A
:1059F00089E190E091838083FE01ED58FF4F808123
:105A000091810197F1F7FE01ED58FF4F918380835B
:105A1000DE01AB58BF4FFE01EB58FF4F80819181F3
:105A2000019711969C938E93FE01EB58FF4F808156
:105A300091810097D1F627C08E010B581F4FFE01B0
:105A4000E958FF4F60817181828193810E944100FA
:105A5000DC01CB01F80191838083DE01AF58BF4F99
:105A6000FE01EB58FF4F808191818D939C93FE0145
:105A7000EF58FF4F808191810197F1F7FE01EF58B8
:105A8000FF4F9183808385E20E94F725FE01E35951
:105A9000FF4F80E090E0A8E4B3E480839183A28389
:105AA000B3838E0107591F4FFE01E359FF4F6081F9
:105AB00071818281938120E030E04AE753E40E94C3
:105AC0001702DC01CB01F80180839183A283B383A9
:105AD000FE01E759FF4F608171818281938120E04F
